{
  "_format": "hh-sol-artifact-1",
  "contractName": "LogToken",
  "sourceName": "contracts/LogToken.sol",
  "abi": [
    {
      "inputs": [
        {
          "internalType": "address",
          "name": "contractAddress",
          "type": "address"
        }
      ],
      "stateMutability": "nonpayable",
      "type": "constructor"
    },
    {
      "anonymous": false,
      "inputs": [
        {
          "indexed": true,
          "internalType": "address",
          "name": "owner",
          "type": "address"
        },
        {
          "indexed": true,
          "internalType": "address",
          "name": "approved",
          "type": "address"
        },
        {
          "indexed": true,
          "internalType": "uint256",
          "name": "tokenId",
          "type": "uint256"
        }
      ],
      "name": "Approval",
      "type": "event"
    },
    {
      "anonymous": false,
      "inputs": [
        {
          "indexed": true,
          "internalType": "address",
          "name": "owner",
          "type": "address"
        },
        {
          "indexed": true,
          "internalType": "address",
          "name": "operator",
          "type": "address"
        },
        {
          "indexed": false,
          "internalType": "bool",
          "name": "approved",
          "type": "bool"
        }
      ],
      "name": "ApprovalForAll",
      "type": "event"
    },
    {
      "anonymous": false,
      "inputs": [
        {
          "indexed": true,
          "internalType": "bytes32",
          "name": "role",
          "type": "bytes32"
        },
        {
          "indexed": true,
          "internalType": "bytes32",
          "name": "previousAdminRole",
          "type": "bytes32"
        },
        {
          "indexed": true,
          "internalType": "bytes32",
          "name": "newAdminRole",
          "type": "bytes32"
        }
      ],
      "name": "RoleAdminChanged",
      "type": "event"
    },
    {
      "anonymous": false,
      "inputs": [
        {
          "indexed": true,
          "internalType": "bytes32",
          "name": "role",
          "type": "bytes32"
        },
        {
          "indexed": true,
          "internalType": "address",
          "name": "account",
          "type": "address"
        },
        {
          "indexed": true,
          "internalType": "address",
          "name": "sender",
          "type": "address"
        }
      ],
      "name": "RoleGranted",
      "type": "event"
    },
    {
      "anonymous": false,
      "inputs": [
        {
          "indexed": true,
          "internalType": "bytes32",
          "name": "role",
          "type": "bytes32"
        },
        {
          "indexed": true,
          "internalType": "address",
          "name": "account",
          "type": "address"
        },
        {
          "indexed": true,
          "internalType": "address",
          "name": "sender",
          "type": "address"
        }
      ],
      "name": "RoleRevoked",
      "type": "event"
    },
    {
      "anonymous": false,
      "inputs": [
        {
          "indexed": true,
          "internalType": "address",
          "name": "from",
          "type": "address"
        },
        {
          "indexed": true,
          "internalType": "address",
          "name": "to",
          "type": "address"
        },
        {
          "indexed": true,
          "internalType": "uint256",
          "name": "tokenId",
          "type": "uint256"
        }
      ],
      "name": "Transfer",
      "type": "event"
    },
    {
      "stateMutability": "payable",
      "type": "fallback"
    },
    {
      "inputs": [],
      "name": "DEFAULT_ADMIN_ROLE",
      "outputs": [
        {
          "internalType": "bytes32",
          "name": "",
          "type": "bytes32"
        }
      ],
      "stateMutability": "view",
      "type": "function"
    },
    {
      "inputs": [],
      "name": "DISABLED_ROLE",
      "outputs": [
        {
          "internalType": "bytes32",
          "name": "",
          "type": "bytes32"
        }
      ],
      "stateMutability": "view",
      "type": "function"
    },
    {
      "inputs": [],
      "name": "MINTER_ROLE",
      "outputs": [
        {
          "internalType": "bytes32",
          "name": "",
          "type": "bytes32"
        }
      ],
      "stateMutability": "view",
      "type": "function"
    },
    {
      "inputs": [
        {
          "internalType": "address",
          "name": "to",
          "type": "address"
        },
        {
          "internalType": "uint256",
          "name": "tokenId",
          "type": "uint256"
        }
      ],
      "name": "approve",
      "outputs": [],
      "stateMutability": "nonpayable",
      "type": "function"
    },
    {
      "inputs": [
        {
          "internalType": "address",
          "name": "owner",
          "type": "address"
        }
      ],
      "name": "balanceOf",
      "outputs": [
        {
          "internalType": "uint256",
          "name": "",
          "type": "uint256"
        }
      ],
      "stateMutability": "view",
      "type": "function"
    },
    {
      "inputs": [
        {
          "internalType": "uint256",
          "name": "tokenId",
          "type": "uint256"
        }
      ],
      "name": "burn",
      "outputs": [],
      "stateMutability": "nonpayable",
      "type": "function"
    },
    {
      "inputs": [
        {
          "internalType": "uint256",
          "name": "tokenId",
          "type": "uint256"
        }
      ],
      "name": "getApproved",
      "outputs": [
        {
          "internalType": "address",
          "name": "",
          "type": "address"
        }
      ],
      "stateMutability": "view",
      "type": "function"
    },
    {
      "inputs": [
        {
          "internalType": "bytes32",
          "name": "role",
          "type": "bytes32"
        }
      ],
      "name": "getRoleAdmin",
      "outputs": [
        {
          "internalType": "bytes32",
          "name": "",
          "type": "bytes32"
        }
      ],
      "stateMutability": "view",
      "type": "function"
    },
    {
      "inputs": [
        {
          "internalType": "bytes32",
          "name": "role",
          "type": "bytes32"
        },
        {
          "internalType": "uint256",
          "name": "index",
          "type": "uint256"
        }
      ],
      "name": "getRoleMember",
      "outputs": [
        {
          "internalType": "address",
          "name": "",
          "type": "address"
        }
      ],
      "stateMutability": "view",
      "type": "function"
    },
    {
      "inputs": [
        {
          "internalType": "bytes32",
          "name": "role",
          "type": "bytes32"
        }
      ],
      "name": "getRoleMemberCount",
      "outputs": [
        {
          "internalType": "uint256",
          "name": "",
          "type": "uint256"
        }
      ],
      "stateMutability": "view",
      "type": "function"
    },
    {
      "inputs": [
        {
          "internalType": "bytes32",
          "name": "role",
          "type": "bytes32"
        },
        {
          "internalType": "address",
          "name": "account",
          "type": "address"
        }
      ],
      "name": "grantRole",
      "outputs": [],
      "stateMutability": "nonpayable",
      "type": "function"
    },
    {
      "inputs": [
        {
          "internalType": "bytes32",
          "name": "role",
          "type": "bytes32"
        },
        {
          "internalType": "address",
          "name": "account",
          "type": "address"
        }
      ],
      "name": "hasRole",
      "outputs": [
        {
          "internalType": "bool",
          "name": "",
          "type": "bool"
        }
      ],
      "stateMutability": "view",
      "type": "function"
    },
    {
      "inputs": [
        {
          "internalType": "address",
          "name": "owner",
          "type": "address"
        },
        {
          "internalType": "address",
          "name": "operator",
          "type": "address"
        }
      ],
      "name": "isApprovedForAll",
      "outputs": [
        {
          "internalType": "bool",
          "name": "",
          "type": "bool"
        }
      ],
      "stateMutability": "view",
      "type": "function"
    },
    {
      "inputs": [],
      "name": "name",
      "outputs": [
        {
          "internalType": "string",
          "name": "",
          "type": "string"
        }
      ],
      "stateMutability": "view",
      "type": "function"
    },
    {
      "inputs": [
        {
          "internalType": "uint256",
          "name": "tokenId",
          "type": "uint256"
        }
      ],
      "name": "ownerOf",
      "outputs": [
        {
          "internalType": "address",
          "name": "",
          "type": "address"
        }
      ],
      "stateMutability": "view",
      "type": "function"
    },
    {
      "inputs": [
        {
          "internalType": "bytes32",
          "name": "role",
          "type": "bytes32"
        },
        {
          "internalType": "address",
          "name": "account",
          "type": "address"
        }
      ],
      "name": "renounceRole",
      "outputs": [],
      "stateMutability": "nonpayable",
      "type": "function"
    },
    {
      "inputs": [
        {
          "internalType": "bytes32",
          "name": "role",
          "type": "bytes32"
        },
        {
          "internalType": "address",
          "name": "account",
          "type": "address"
        }
      ],
      "name": "revokeRole",
      "outputs": [],
      "stateMutability": "nonpayable",
      "type": "function"
    },
    {
      "inputs": [
        {
          "internalType": "address",
          "name": "to",
          "type": "address"
        },
        {
          "internalType": "string",
          "name": "uri",
          "type": "string"
        }
      ],
      "name": "safeMint",
      "outputs": [],
      "stateMutability": "payable",
      "type": "function"
    },
    {
      "inputs": [
        {
          "internalType": "address",
          "name": "from",
          "type": "address"
        },
        {
          "internalType": "address",
          "name": "to",
          "type": "address"
        },
        {
          "internalType": "uint256",
          "name": "tokenId",
          "type": "uint256"
        }
      ],
      "name": "safeTransferFrom",
      "outputs": [],
      "stateMutability": "nonpayable",
      "type": "function"
    },
    {
      "inputs": [
        {
          "internalType": "address",
          "name": "from",
          "type": "address"
        },
        {
          "internalType": "address",
          "name": "to",
          "type": "address"
        },
        {
          "internalType": "uint256",
          "name": "tokenId",
          "type": "uint256"
        },
        {
          "internalType": "bytes",
          "name": "_data",
          "type": "bytes"
        }
      ],
      "name": "safeTransferFrom",
      "outputs": [],
      "stateMutability": "nonpayable",
      "type": "function"
    },
    {
      "inputs": [
        {
          "internalType": "address",
          "name": "operator",
          "type": "address"
        },
        {
          "internalType": "bool",
          "name": "approved",
          "type": "bool"
        }
      ],
      "name": "setApprovalForAll",
      "outputs": [],
      "stateMutability": "nonpayable",
      "type": "function"
    },
    {
      "inputs": [
        {
          "internalType": "bytes4",
          "name": "interfaceId",
          "type": "bytes4"
        }
      ],
      "name": "supportsInterface",
      "outputs": [
        {
          "internalType": "bool",
          "name": "",
          "type": "bool"
        }
      ],
      "stateMutability": "view",
      "type": "function"
    },
    {
      "inputs": [],
      "name": "symbol",
      "outputs": [
        {
          "internalType": "string",
          "name": "",
          "type": "string"
        }
      ],
      "stateMutability": "view",
      "type": "function"
    },
    {
      "inputs": [
        {
          "internalType": "uint256",
          "name": "index",
          "type": "uint256"
        }
      ],
      "name": "tokenByIndex",
      "outputs": [
        {
          "internalType": "uint256",
          "name": "",
          "type": "uint256"
        }
      ],
      "stateMutability": "view",
      "type": "function"
    },
    {
      "inputs": [
        {
          "internalType": "address",
          "name": "owner",
          "type": "address"
        },
        {
          "internalType": "uint256",
          "name": "index",
          "type": "uint256"
        }
      ],
      "name": "tokenOfOwnerByIndex",
      "outputs": [
        {
          "internalType": "uint256",
          "name": "",
          "type": "uint256"
        }
      ],
      "stateMutability": "view",
      "type": "function"
    },
    {
      "inputs": [
        {
          "internalType": "uint256",
          "name": "tokenId",
          "type": "uint256"
        }
      ],
      "name": "tokenURI",
      "outputs": [
        {
          "internalType": "string",
          "name": "",
          "type": "string"
        }
      ],
      "stateMutability": "view",
      "type": "function"
    },
    {
      "inputs": [],
      "name": "totalSupply",
      "outputs": [
        {
          "internalType": "uint256",
          "name": "",
          "type": "uint256"
        }
      ],
      "stateMutability": "view",
      "type": "function"
    },
    {
      "inputs": [
        {
          "internalType": "address",
          "name": "from",
          "type": "address"
        },
        {
          "internalType": "address",
          "name": "to",
          "type": "address"
        },
        {
          "internalType": "uint256",
          "name": "tokenId",
          "type": "uint256"
        }
      ],
      "name": "transferFrom",
      "outputs": [],
      "stateMutability": "nonpayable",
      "type": "function"
    },
    {
      "stateMutability": "payable",
      "type": "receive"
    }
  ],
  "bytecode": "0x60806040523480156200001157600080fd5b5060405162005161380380620051618339818101604052810190620000379190620004f0565b6040518060400160405280600881526020017f4c6f67546f6b656e0000000000000000000000000000000000000000000000008152506040518060400160405280600381526020017f4c544b00000000000000000000000000000000000000000000000000000000008152508160009080519060200190620000bb92919062000429565b508060019080519060200190620000d492919062000429565b50505080600e60006101000a81548173ffffffffffffffffffffffffffffffffffffffff021916908373ffffffffffffffffffffffffffffffffffffffff16021790555033600d60006101000a81548173ffffffffffffffffffffffffffffffffffffffff021916908373ffffffffffffffffffffffffffffffffffffffff1602179055506200016e6000801b33620001a760201b60201c565b620001a07f9f2df0fed2c77648de5860a4cc508cd0818c85b8b8a1ab4ceeef8d981c8956a633620001a760201b60201c565b50620005cf565b620001be8282620001ef60201b620011f51760201c565b620001ea81600c6000858152602001908152602001600020620002e160201b620012d61790919060201c565b505050565b6200020182826200031960201b60201c565b620002dd576001600b600084815260200190815260200160002060000160008373ffffffffffffffffffffffffffffffffffffffff1673ffffffffffffffffffffffffffffffffffffffff16815260200190815260200160002060006101000a81548160ff021916908315150217905550620002826200038460201b60201c565b73ffffffffffffffffffffffffffffffffffffffff168173ffffffffffffffffffffffffffffffffffffffff16837f2f8788117e7eff1d82e926ec794901d17c78024a50270940304540a733656f0d60405160405180910390a45b5050565b600062000311836000018373ffffffffffffffffffffffffffffffffffffffff1660001b6200038c60201b60201c565b905092915050565b6000600b600084815260200190815260200160002060000160008373ffffffffffffffffffffffffffffffffffffffff1673ffffffffffffffffffffffffffffffffffffffff16815260200190815260200160002060009054906101000a900460ff16905092915050565b600033905090565b6000620003a083836200040660201b60201c565b620003fb57826000018290806001815401808255809150506001900390600052602060002001600090919091909150558260000180549050836001016000848152602001908152602001600020819055506001905062000400565b600090505b92915050565b600080836001016000848152602001908152602001600020541415905092915050565b828054620004379062000550565b90600052602060002090601f0160209004810192826200045b5760008555620004a7565b82601f106200047657805160ff1916838001178555620004a7565b82800160010185558215620004a7579182015b82811115620004a657825182559160200191906001019062000489565b5b509050620004b69190620004ba565b5090565b5b80821115620004d5576000816000905550600101620004bb565b5090565b600081519050620004ea81620005b5565b92915050565b6000602082840312156200050357600080fd5b60006200051384828501620004d9565b91505092915050565b6000620005298262000530565b9050919050565b600073ffffffffffffffffffffffffffffffffffffffff82169050919050565b600060028204905060018216806200056957607f821691505b6020821081141562000580576200057f62000586565b5b50919050565b7f4e487b7100000000000000000000000000000000000000000000000000000000600052602260045260246000fd5b620005c0816200051c565b8114620005cc57600080fd5b50565b614b8280620005df6000396000f3fe6080604052600436106101bb5760003560e01c806370a08231116100ec578063b88d4fde1161008a578063d204c45e11610064578063d204c45e14610682578063d53913931461069e578063d547741f146106c9578063e985e9c5146106f2576101c2565b8063b88d4fde146105df578063c87b56dd14610608578063ca15c87314610645576101c2565b806395d89b41116100c657806395d89b4114610535578063a217fddf14610560578063a22cb4651461058b578063a25038cf146105b4576101c2565b806370a082311461047e5780639010d07c146104bb57806391d14854146104f8576101c2565b80632f2ff15d1161015957806342842e0e1161013357806342842e0e146103b257806342966c68146103db5780634f6ccce7146104045780636352211e14610441576101c2565b80632f2ff15d146103235780632f745c591461034c57806336568abe14610389576101c2565b8063095ea7b311610195578063095ea7b31461026957806318160ddd1461029257806323b872dd146102bd578063248a9ca3146102e6576101c2565b806301ffc9a7146101c457806306fdde0314610201578063081812fc1461022c576101c2565b366101c257005b005b3480156101d057600080fd5b506101eb60048036038101906101e69190613745565b61072f565b6040516101f89190613cac565b60405180910390f35b34801561020d57600080fd5b50610216610741565b6040516102239190613d0b565b60405180910390f35b34801561023857600080fd5b50610253600480360381019061024e9190613797565b6107d3565b6040516102609190613c45565b60405180910390f35b34801561027557600080fd5b50610290600480360381019061028b919061363f565b610858565b005b34801561029e57600080fd5b506102a7610970565b6040516102b49190613fed565b60405180910390f35b3480156102c957600080fd5b506102e460048036038101906102df91906134e5565b61097d565b005b3480156102f257600080fd5b5061030d600480360381019061030891906136a4565b6109dd565b60405161031a9190613cc7565b60405180910390f35b34801561032f57600080fd5b5061034a600480360381019061034591906136cd565b6109fd565b005b34801561035857600080fd5b50610373600480360381019061036e919061363f565b610a26565b6040516103809190613fed565b60405180910390f35b34801561039557600080fd5b506103b060048036038101906103ab91906136cd565b610acb565b005b3480156103be57600080fd5b506103d960048036038101906103d491906134e5565b610b4e565b005b3480156103e757600080fd5b5061040260048036038101906103fd9190613797565b610b6e565b005b34801561041057600080fd5b5061042b60048036038101906104269190613797565b610bca565b6040516104389190613fed565b60405180910390f35b34801561044d57600080fd5b5061046860048036038101906104639190613797565b610c61565b6040516104759190613c45565b60405180910390f35b34801561048a57600080fd5b506104a560048036038101906104a09190613480565b610d13565b6040516104b29190613fed565b60405180910390f35b3480156104c757600080fd5b506104e260048036038101906104dd9190613709565b610dcb565b6040516104ef9190613c45565b60405180910390f35b34801561050457600080fd5b5061051f600480360381019061051a91906136cd565b610dfa565b60405161052c9190613cac565b60405180910390f35b34801561054157600080fd5b5061054a610e65565b6040516105579190613d0b565b60405180910390f35b34801561056c57600080fd5b50610575610ef7565b6040516105829190613cc7565b60405180910390f35b34801561059757600080fd5b506105b260048036038101906105ad91906135af565b610efe565b005b3480156105c057600080fd5b506105c9610f14565b6040516105d69190613cc7565b60405180910390f35b3480156105eb57600080fd5b5061060660048036038101906106019190613534565b610f38565b005b34801561061457600080fd5b5061062f600480360381019061062a9190613797565b610f9a565b60405161063c9190613d0b565b60405180910390f35b34801561065157600080fd5b5061066c600480360381019061066791906136a4565b610fac565b6040516106799190613fed565b60405180910390f35b61069c600480360381019061069791906135eb565b610fd0565b005b3480156106aa57600080fd5b506106b3611114565b6040516106c09190613cc7565b60405180910390f35b3480156106d557600080fd5b506106f060048036038101906106eb91906136cd565b611138565b005b3480156106fe57600080fd5b50610719600480360381019061071491906134a9565b611161565b6040516107269190613cac565b60405180910390f35b600061073a82611306565b9050919050565b606060008054610750906142d1565b80601f016020809104026020016040519081016040528092919081815260200182805461077c906142d1565b80156107c95780601f1061079e576101008083540402835291602001916107c9565b820191906000526020600020905b8154815290600101906020018083116107ac57829003601f168201915b5050505050905090565b60006107de82611380565b61081d576040517f08c379a000000000000000000000000000000000000000000000000000000000815260040161081490613f0d565b60405180910390fd5b6004600083815260200190815260200160002060009054906101000a900473ffffffffffffffffffffffffffffffffffffffff169050919050565b600061086382610c61565b90508073ffffffffffffffffffffffffffffffffffffffff168373ffffffffffffffffffffffffffffffffffffffff1614156108d4576040517f08c379a00000000000000000000000000000000000000000000000000000000081526004016108cb90613f4d565b60405180910390fd5b8073ffffffffffffffffffffffffffffffffffffffff166108f36113ec565b73ffffffffffffffffffffffffffffffffffffffff16148061092257506109218161091c6113ec565b611161565b5b610961576040517f08c379a000000000000000000000000000000000000000000000000000000000815260040161095890613e2d565b60405180910390fd5b61096b83836113f4565b505050565b6000600880549050905090565b61098e6109886113ec565b826114ad565b6109cd576040517f08c379a00000000000000000000000000000000000000000000000000000000081526004016109c490613f6d565b60405180910390fd5b6109d883838361158b565b505050565b6000600b6000838152602001908152602001600020600101549050919050565b610a06826109dd565b610a1781610a126113ec565b6117f2565b610a21838361188f565b505050565b6000610a3183610d13565b8210610a72576040517f08c379a0000000000000000000000000000000000000000000000000000000008152600401610a6990613d4d565b60405180910390fd5b600660008473ffffffffffffffffffffffffffffffffffffffff1673ffffffffffffffffffffffffffffffffffffffff168152602001908152602001600020600083815260200190815260200160002054905092915050565b610ad36113ec565b73ffffffffffffffffffffffffffffffffffffffff168173ffffffffffffffffffffffffffffffffffffffff1614610b40576040517f08c379a0000000000000000000000000000000000000000000000000000000008152600401610b3790613fcd565b60405180910390fd5b610b4a82826118c3565b5050565b610b6983838360405180602001604052806000815250610f38565b505050565b610b7f610b796113ec565b826114ad565b610bbe576040517f08c379a0000000000000000000000000000000000000000000000000000000008152600401610bb590613fad565b60405180910390fd5b610bc7816118f7565b50565b6000610bd4610970565b8210610c15576040517f08c379a0000000000000000000000000000000000000000000000000000000008152600401610c0c90613f8d565b60405180910390fd5b60088281548110610c4f577f4e487b7100000000000000000000000000000000000000000000000000000000600052603260045260246000fd5b90600052602060002001549050919050565b6000806002600084815260200190815260200160002060009054906101000a900473ffffffffffffffffffffffffffffffffffffffff169050600073ffffffffffffffffffffffffffffffffffffffff168173ffffffffffffffffffffffffffffffffffffffff161415610d0a576040517f08c379a0000000000000000000000000000000000000000000000000000000008152600401610d0190613e6d565b60405180910390fd5b80915050919050565b60008073ffffffffffffffffffffffffffffffffffffffff168273ffffffffffffffffffffffffffffffffffffffff161415610d84576040517f08c379a0000000000000000000000000000000000000000000000000000000008152600401610d7b90613e4d565b60405180910390fd5b600360008373ffffffffffffffffffffffffffffffffffffffff1673ffffffffffffffffffffffffffffffffffffffff168152602001908152602001600020549050919050565b6000610df282600c600086815260200190815260200160002061190390919063ffffffff16565b905092915050565b6000600b600084815260200190815260200160002060000160008373ffffffffffffffffffffffffffffffffffffffff1673ffffffffffffffffffffffffffffffffffffffff16815260200190815260200160002060009054906101000a900460ff16905092915050565b606060018054610e74906142d1565b80601f0160208091040260200160405190810160405280929190818152602001828054610ea0906142d1565b8015610eed5780601f10610ec257610100808354040283529160200191610eed565b820191906000526020600020905b815481529060010190602001808311610ed057829003601f168201915b5050505050905090565b6000801b81565b610f10610f096113ec565b838361191d565b5050565b7fa525cde1cb1016e83acdcf1bd75f317fb68bb72cf5721ac56f746ad8529dae9981565b610f49610f436113ec565b836114ad565b610f88576040517f08c379a0000000000000000000000000000000000000000000000000000000008152600401610f7f90613f6d565b60405180910390fd5b610f9484848484611a8a565b50505050565b6060610fa582611ae6565b9050919050565b6000610fc9600c6000848152602001908152602001600020611c38565b9050919050565b6000600e60009054906101000a900473ffffffffffffffffffffffffffffffffffffffff1673ffffffffffffffffffffffffffffffffffffffff166391d148547fa525cde1cb1016e83acdcf1bd75f317fb68bb72cf5721ac56f746ad8529dae99856040518363ffffffff1660e01b815260040161104f929190613ce2565b60206040518083038186803b15801561106757600080fd5b505afa15801561107b573d6000803e3d6000fd5b505050506040513d601f19601f8201168201806040525081019061109f919061367b565b905080156110e2576040517f08c379a00000000000000000000000000000000000000000000000000000000081526004016110d990613ead565b60405180910390fd5b60006110ee600f611c4d565b90506110fa600f611c5b565b6111048482611c71565b61110e8184611c8f565b50505050565b7f9f2df0fed2c77648de5860a4cc508cd0818c85b8b8a1ab4ceeef8d981c8956a681565b611141826109dd565b6111528161114d6113ec565b6117f2565b61115c83836118c3565b505050565b6000600560008473ffffffffffffffffffffffffffffffffffffffff1673ffffffffffffffffffffffffffffffffffffffff16815260200190815260200160002060008373ffffffffffffffffffffffffffffffffffffffff1673ffffffffffffffffffffffffffffffffffffffff16815260200190815260200160002060009054906101000a900460ff16905092915050565b6111ff8282610dfa565b6112d2576001600b600084815260200190815260200160002060000160008373ffffffffffffffffffffffffffffffffffffffff1673ffffffffffffffffffffffffffffffffffffffff16815260200190815260200160002060006101000a81548160ff0219169083151502179055506112776113ec565b73ffffffffffffffffffffffffffffffffffffffff168173ffffffffffffffffffffffffffffffffffffffff16837f2f8788117e7eff1d82e926ec794901d17c78024a50270940304540a733656f0d60405160405180910390a45b5050565b60006112fe836000018373ffffffffffffffffffffffffffffffffffffffff1660001b611d03565b905092915050565b60007f5a05180f000000000000000000000000000000000000000000000000000000007bffffffffffffffffffffffffffffffffffffffffffffffffffffffff1916827bffffffffffffffffffffffffffffffffffffffffffffffffffffffff19161480611379575061137882611d73565b5b9050919050565b60008073ffffffffffffffffffffffffffffffffffffffff166002600084815260200190815260200160002060009054906101000a900473ffffffffffffffffffffffffffffffffffffffff1673ffffffffffffffffffffffffffffffffffffffff1614159050919050565b600033905090565b816004600083815260200190815260200160002060006101000a81548173ffffffffffffffffffffffffffffffffffffffff021916908373ffffffffffffffffffffffffffffffffffffffff160217905550808273ffffffffffffffffffffffffffffffffffffffff1661146783610c61565b73ffffffffffffffffffffffffffffffffffffffff167f8c5be1e5ebec7d5bd14f71427d1e84f3dd0314c0f7b2291e5b200ac8c7c3b92560405160405180910390a45050565b60006114b882611380565b6114f7576040517f08c379a00000000000000000000000000000000000000000000000000000000081526004016114ee90613e0d565b60405180910390fd5b600061150283610c61565b90508073ffffffffffffffffffffffffffffffffffffffff168473ffffffffffffffffffffffffffffffffffffffff16148061157157508373ffffffffffffffffffffffffffffffffffffffff16611559846107d3565b73ffffffffffffffffffffffffffffffffffffffff16145b8061158257506115818185611161565b5b91505092915050565b8273ffffffffffffffffffffffffffffffffffffffff166115ab82610c61565b73ffffffffffffffffffffffffffffffffffffffff1614611601576040517f08c379a00000000000000000000000000000000000000000000000000000000081526004016115f890613d8d565b60405180910390fd5b600073ffffffffffffffffffffffffffffffffffffffff168273ffffffffffffffffffffffffffffffffffffffff161415611671576040517f08c379a000000000000000000000000000000000000000000000000000000000815260040161166890613dcd565b60405180910390fd5b61167c838383611ded565b6116876000826113f4565b6001600360008573ffffffffffffffffffffffffffffffffffffffff1673ffffffffffffffffffffffffffffffffffffffff16815260200190815260200160002060008282546116d791906141b3565b925050819055506001600360008473ffffffffffffffffffffffffffffffffffffffff1673ffffffffffffffffffffffffffffffffffffffff168152602001908152602001600020600082825461172e91906140d2565b92505081905550816002600083815260200190815260200160002060006101000a81548173ffffffffffffffffffffffffffffffffffffffff021916908373ffffffffffffffffffffffffffffffffffffffff160217905550808273ffffffffffffffffffffffffffffffffffffffff168473ffffffffffffffffffffffffffffffffffffffff167fddf252ad1be2c89b69c2b068fc378daa952ba7f163c4a11628f55a4df523b3ef60405160405180910390a46117ed838383611dfd565b505050565b6117fc8282610dfa565b61188b576118218173ffffffffffffffffffffffffffffffffffffffff166014611e02565b61182f8360001c6020611e02565b604051602001611840929190613c0b565b6040516020818303038152906040526040517f08c379a00000000000000000000000000000000000000000000000000000000081526004016118829190613d0b565b60405180910390fd5b5050565b61189982826111f5565b6118be81600c60008581526020019081526020016000206112d690919063ffffffff16565b505050565b6118cd82826120fc565b6118f281600c60008581526020019081526020016000206121de90919063ffffffff16565b505050565b6119008161220e565b50565b60006119128360000183612261565b60001c905092915050565b8173ffffffffffffffffffffffffffffffffffffffff168373ffffffffffffffffffffffffffffffffffffffff16141561198c576040517f08c379a000000000000000000000000000000000000000000000000000000000815260040161198390613ded565b60405180910390fd5b80600560008573ffffffffffffffffffffffffffffffffffffffff1673ffffffffffffffffffffffffffffffffffffffff16815260200190815260200160002060008473ffffffffffffffffffffffffffffffffffffffff1673ffffffffffffffffffffffffffffffffffffffff16815260200190815260200160002060006101000a81548160ff0219169083151502179055508173ffffffffffffffffffffffffffffffffffffffff168373ffffffffffffffffffffffffffffffffffffffff167f17307eab39ab6107e8899845ad3d59bd9653f200f220920489ca2b5937696c3183604051611a7d9190613cac565b60405180910390a3505050565b611a9584848461158b565b611aa1848484846122b2565b611ae0576040517f08c379a0000000000000000000000000000000000000000000000000000000008152600401611ad790613d6d565b60405180910390fd5b50505050565b6060611af182611380565b611b30576040517f08c379a0000000000000000000000000000000000000000000000000000000008152600401611b2790613eed565b60405180910390fd5b6000600a60008481526020019081526020016000208054611b50906142d1565b80601f0160208091040260200160405190810160405280929190818152602001828054611b7c906142d1565b8015611bc95780601f10611b9e57610100808354040283529160200191611bc9565b820191906000526020600020905b815481529060010190602001808311611bac57829003601f168201915b505050505090506000611bda612449565b9050600081511415611bf0578192505050611c33565b600082511115611c25578082604051602001611c0d929190613be7565b60405160208183030381529060405292505050611c33565b611c2e84612460565b925050505b919050565b6000611c4682600001612507565b9050919050565b600081600001549050919050565b6001816000016000828254019250508190555050565b611c8b828260405180602001604052806000815250612518565b5050565b611c9882611380565b611cd7576040517f08c379a0000000000000000000000000000000000000000000000000000000008152600401611cce90613e8d565b60405180910390fd5b80600a60008481526020019081526020016000209080519060200190611cfe92919061323a565b505050565b6000611d0f8383612573565b611d68578260000182908060018154018082558091505060019003906000526020600020016000909190919091505582600001805490508360010160008481526020019081526020016000208190555060019050611d6d565b600090505b92915050565b60007f7965db0b000000000000000000000000000000000000000000000000000000007bffffffffffffffffffffffffffffffffffffffffffffffffffffffff1916827bffffffffffffffffffffffffffffffffffffffffffffffffffffffff19161480611de65750611de582612596565b5b9050919050565b611df8838383612610565b505050565b505050565b606060006002836002611e159190614159565b611e1f91906140d2565b67ffffffffffffffff811115611e5e577f4e487b7100000000000000000000000000000000000000000000000000000000600052604160045260246000fd5b6040519080825280601f01601f191660200182016040528015611e905781602001600182028036833780820191505090505b5090507f300000000000000000000000000000000000000000000000000000000000000081600081518110611eee577f4e487b7100000000000000000000000000000000000000000000000000000000600052603260045260246000fd5b60200101907effffffffffffffffffffffffffffffffffffffffffffffffffffffffffffff1916908160001a9053507f780000000000000000000000000000000000000000000000000000000000000081600181518110611f78577f4e487b7100000000000000000000000000000000000000000000000000000000600052603260045260246000fd5b60200101907effffffffffffffffffffffffffffffffffffffffffffffffffffffffffffff1916908160001a90535060006001846002611fb89190614159565b611fc291906140d2565b90505b60018111156120ae577f3031323334353637383961626364656600000000000000000000000000000000600f86166010811061202a577f4e487b7100000000000000000000000000000000000000000000000000000000600052603260045260246000fd5b1a60f81b828281518110612067577f4e487b7100000000000000000000000000000000000000000000000000000000600052603260045260246000fd5b60200101907effffffffffffffffffffffffffffffffffffffffffffffffffffffffffffff1916908160001a905350600485901c9450806120a7906142a7565b9050611fc5565b50600084146120f2576040517f08c379a00000000000000000000000000000000000000000000000000000000081526004016120e990613d2d565b60405180910390fd5b8091505092915050565b6121068282610dfa565b156121da576000600b600084815260200190815260200160002060000160008373ffffffffffffffffffffffffffffffffffffffff1673ffffffffffffffffffffffffffffffffffffffff16815260200190815260200160002060006101000a81548160ff02191690831515021790555061217f6113ec565b73ffffffffffffffffffffffffffffffffffffffff168173ffffffffffffffffffffffffffffffffffffffff16837ff6391f5c32d9c69d2a47ea670b442974b53935d1edc7fd64eb21e047a839171b60405160405180910390a45b5050565b6000612206836000018373ffffffffffffffffffffffffffffffffffffffff1660001b612724565b905092915050565b612217816128aa565b6000600a60008381526020019081526020016000208054612237906142d1565b90501461225e57600a6000828152602001908152602001600020600061225d91906132c0565b5b50565b600082600001828154811061229f577f4e487b7100000000000000000000000000000000000000000000000000000000600052603260045260246000fd5b9060005260206000200154905092915050565b60006122d38473ffffffffffffffffffffffffffffffffffffffff166129c7565b1561243c578373ffffffffffffffffffffffffffffffffffffffff1663150b7a026122fc6113ec565b8786866040518563ffffffff1660e01b815260040161231e9493929190613c60565b602060405180830381600087803b15801561233857600080fd5b505af192505050801561236957506040513d601f19601f82011682018060405250810190612366919061376e565b60015b6123ec573d8060008114612399576040519150601f19603f3d011682016040523d82523d6000602084013e61239e565b606091505b506000815114156123e4576040517f08c379a00000000000000000000000000000000000000000000000000000000081526004016123db90613d6d565b60405180910390fd5b805181602001fd5b63150b7a0260e01b7bffffffffffffffffffffffffffffffffffffffffffffffffffffffff1916817bffffffffffffffffffffffffffffffffffffffffffffffffffffffff191614915050612441565b600190505b949350505050565b606060405180602001604052806000815250905090565b606061246b82611380565b6124aa576040517f08c379a00000000000000000000000000000000000000000000000000000000081526004016124a190613f2d565b60405180910390fd5b60006124b4612449565b905060008151116124d457604051806020016040528060008152506124ff565b806124de846129ea565b6040516020016124ef929190613be7565b6040516020818303038152906040525b915050919050565b600081600001805490509050919050565b6125228383612b97565b61252f60008484846122b2565b61256e576040517f08c379a000000000000000000000000000000000000000000000000000000000815260040161256590613d6d565b60405180910390fd5b505050565b600080836001016000848152602001908152602001600020541415905092915050565b60007f780e9d63000000000000000000000000000000000000000000000000000000007bffffffffffffffffffffffffffffffffffffffffffffffffffffffff1916827bffffffffffffffffffffffffffffffffffffffffffffffffffffffff19161480612609575061260882612d71565b5b9050919050565b61261b838383612e53565b600073ffffffffffffffffffffffffffffffffffffffff168373ffffffffffffffffffffffffffffffffffffffff16141561265e5761265981612e58565b61269d565b8173ffffffffffffffffffffffffffffffffffffffff168373ffffffffffffffffffffffffffffffffffffffff161461269c5761269b8382612ea1565b5b5b600073ffffffffffffffffffffffffffffffffffffffff168273ffffffffffffffffffffffffffffffffffffffff1614156126e0576126db8161300e565b61271f565b8273ffffffffffffffffffffffffffffffffffffffff168273ffffffffffffffffffffffffffffffffffffffff161461271e5761271d8282613151565b5b5b505050565b6000808360010160008481526020019081526020016000205490506000811461289e57600060018261275691906141b3565b905060006001866000018054905061276e91906141b3565b90508181146128295760008660000182815481106127b5577f4e487b7100000000000000000000000000000000000000000000000000000000600052603260045260246000fd5b90600052602060002001549050808760000184815481106127ff577f4e487b7100000000000000000000000000000000000000000000000000000000600052603260045260246000fd5b90600052602060002001819055508387600101600083815260200190815260200160002081905550505b85600001805480612863577f4e487b7100000000000000000000000000000000000000000000000000000000600052603160045260246000fd5b6001900381819060005260206000200160009055905585600101600086815260200190815260200160002060009055600193505050506128a4565b60009150505b92915050565b60006128b582610c61565b90506128c381600084611ded565b6128ce6000836113f4565b6001600360008373ffffffffffffffffffffffffffffffffffffffff1673ffffffffffffffffffffffffffffffffffffffff168152602001908152602001600020600082825461291e91906141b3565b925050819055506002600083815260200190815260200160002060006101000a81549073ffffffffffffffffffffffffffffffffffffffff021916905581600073ffffffffffffffffffffffffffffffffffffffff168273ffffffffffffffffffffffffffffffffffffffff167fddf252ad1be2c89b69c2b068fc378daa952ba7f163c4a11628f55a4df523b3ef60405160405180910390a46129c381600084611dfd565b5050565b6000808273ffffffffffffffffffffffffffffffffffffffff163b119050919050565b60606000821415612a32576040518060400160405280600181526020017f30000000000000000000000000000000000000000000000000000000000000008152509050612b92565b600082905060005b60008214612a64578080612a4d90614334565b915050600a82612a5d9190614128565b9150612a3a565b60008167ffffffffffffffff811115612aa6577f4e487b7100000000000000000000000000000000000000000000000000000000600052604160045260246000fd5b6040519080825280601f01601f191660200182016040528015612ad85781602001600182028036833780820191505090505b5090505b60008514612b8b57600182612af191906141b3565b9150600a85612b00919061437d565b6030612b0c91906140d2565b60f81b818381518110612b48577f4e487b7100000000000000000000000000000000000000000000000000000000600052603260045260246000fd5b60200101907effffffffffffffffffffffffffffffffffffffffffffffffffffffffffffff1916908160001a905350600a85612b849190614128565b9450612adc565b8093505050505b919050565b600073ffffffffffffffffffffffffffffffffffffffff168273ffffffffffffffffffffffffffffffffffffffff161415612c07576040517f08c379a0000000000000000000000000000000000000000000000000000000008152600401612bfe90613ecd565b60405180910390fd5b612c1081611380565b15612c50576040517f08c379a0000000000000000000000000000000000000000000000000000000008152600401612c4790613dad565b60405180910390fd5b612c5c60008383611ded565b6001600360008473ffffffffffffffffffffffffffffffffffffffff1673ffffffffffffffffffffffffffffffffffffffff1681526020019081526020016000206000828254612cac91906140d2565b92505081905550816002600083815260200190815260200160002060006101000a81548173ffffffffffffffffffffffffffffffffffffffff021916908373ffffffffffffffffffffffffffffffffffffffff160217905550808273ffffffffffffffffffffffffffffffffffffffff16600073ffffffffffffffffffffffffffffffffffffffff167fddf252ad1be2c89b69c2b068fc378daa952ba7f163c4a11628f55a4df523b3ef60405160405180910390a4612d6d60008383611dfd565b5050565b60007f80ac58cd000000000000000000000000000000000000000000000000000000007bffffffffffffffffffffffffffffffffffffffffffffffffffffffff1916827bffffffffffffffffffffffffffffffffffffffffffffffffffffffff19161480612e3c57507f5b5e139f000000000000000000000000000000000000000000000000000000007bffffffffffffffffffffffffffffffffffffffffffffffffffffffff1916827bffffffffffffffffffffffffffffffffffffffffffffffffffffffff1916145b80612e4c5750612e4b826131d0565b5b9050919050565b505050565b6008805490506009600083815260200190815260200160002081905550600881908060018154018082558091505060019003906000526020600020016000909190919091505550565b60006001612eae84610d13565b612eb891906141b3565b9050600060076000848152602001908152602001600020549050818114612f9d576000600660008673ffffffffffffffffffffffffffffffffffffffff1673ffffffffffffffffffffffffffffffffffffffff168152602001908152602001600020600084815260200190815260200160002054905080600660008773ffffffffffffffffffffffffffffffffffffffff1673ffffffffffffffffffffffffffffffffffffffff168152602001908152602001600020600084815260200190815260200160002081905550816007600083815260200190815260200160002081905550505b6007600084815260200190815260200160002060009055600660008573ffffffffffffffffffffffffffffffffffffffff1673ffffffffffffffffffffffffffffffffffffffff16815260200190815260200160002060008381526020019081526020016000206000905550505050565b6000600160088054905061302291906141b3565b9050600060096000848152602001908152602001600020549050600060088381548110613078577f4e487b7100000000000000000000000000000000000000000000000000000000600052603260045260246000fd5b9060005260206000200154905080600883815481106130c0577f4e487b7100000000000000000000000000000000000000000000000000000000600052603260045260246000fd5b906000526020600020018190555081600960008381526020019081526020016000208190555060096000858152602001908152602001600020600090556008805480613135577f4e487b7100000000000000000000000000000000000000000000000000000000600052603160045260246000fd5b6001900381819060005260206000200160009055905550505050565b600061315c83610d13565b905081600660008573ffffffffffffffffffffffffffffffffffffffff1673ffffffffffffffffffffffffffffffffffffffff168152602001908152602001600020600083815260200190815260200160002081905550806007600084815260200190815260200160002081905550505050565b60007f01ffc9a7000000000000000000000000000000000000000000000000000000007bffffffffffffffffffffffffffffffffffffffffffffffffffffffff1916827bffffffffffffffffffffffffffffffffffffffffffffffffffffffff1916149050919050565b828054613246906142d1565b90600052602060002090601f01602090048101928261326857600085556132af565b82601f1061328157805160ff19168380011785556132af565b828001600101855582156132af579182015b828111156132ae578251825591602001919060010190613293565b5b5090506132bc9190613300565b5090565b5080546132cc906142d1565b6000825580601f106132de57506132fd565b601f0160209004906000526020600020908101906132fc9190613300565b5b50565b5b80821115613319576000816000905550600101613301565b5090565b600061333061332b8461402d565b614008565b90508281526020810184848401111561334857600080fd5b613353848285614265565b509392505050565b600061336e6133698461405e565b614008565b90508281526020810184848401111561338657600080fd5b613391848285614265565b509392505050565b6000813590506133a881614ad9565b92915050565b6000813590506133bd81614af0565b92915050565b6000815190506133d281614af0565b92915050565b6000813590506133e781614b07565b92915050565b6000813590506133fc81614b1e565b92915050565b60008151905061341181614b1e565b92915050565b600082601f83011261342857600080fd5b813561343884826020860161331d565b91505092915050565b600082601f83011261345257600080fd5b813561346284826020860161335b565b91505092915050565b60008135905061347a81614b35565b92915050565b60006020828403121561349257600080fd5b60006134a084828501613399565b91505092915050565b600080604083850312156134bc57600080fd5b60006134ca85828601613399565b92505060206134db85828601613399565b9150509250929050565b6000806000606084860312156134fa57600080fd5b600061350886828701613399565b935050602061351986828701613399565b925050604061352a8682870161346b565b9150509250925092565b6000806000806080858703121561354a57600080fd5b600061355887828801613399565b945050602061356987828801613399565b935050604061357a8782880161346b565b925050606085013567ffffffffffffffff81111561359757600080fd5b6135a387828801613417565b91505092959194509250565b600080604083850312156135c257600080fd5b60006135d085828601613399565b92505060206135e1858286016133ae565b9150509250929050565b600080604083850312156135fe57600080fd5b600061360c85828601613399565b925050602083013567ffffffffffffffff81111561362957600080fd5b61363585828601613441565b9150509250929050565b6000806040838503121561365257600080fd5b600061366085828601613399565b92505060206136718582860161346b565b9150509250929050565b60006020828403121561368d57600080fd5b600061369b848285016133c3565b91505092915050565b6000602082840312156136b657600080fd5b60006136c4848285016133d8565b91505092915050565b600080604083850312156136e057600080fd5b60006136ee858286016133d8565b92505060206136ff85828601613399565b9150509250929050565b6000806040838503121561371c57600080fd5b600061372a858286016133d8565b925050602061373b8582860161346b565b9150509250929050565b60006020828403121561375757600080fd5b6000613765848285016133ed565b91505092915050565b60006020828403121561378057600080fd5b600061378e84828501613402565b91505092915050565b6000602082840312156137a957600080fd5b60006137b78482850161346b565b91505092915050565b6137c9816141e7565b82525050565b6137d8816141f9565b82525050565b6137e781614205565b82525050565b60006137f88261408f565b61380281856140a5565b9350613812818560208601614274565b61381b8161446a565b840191505092915050565b60006138318261409a565b61383b81856140b6565b935061384b818560208601614274565b6138548161446a565b840191505092915050565b600061386a8261409a565b61387481856140c7565b9350613884818560208601614274565b80840191505092915050565b600061389d6020836140b6565b91506138a88261447b565b602082019050919050565b60006138c0602b836140b6565b91506138cb826144a4565b604082019050919050565b60006138e36032836140b6565b91506138ee826144f3565b604082019050919050565b60006139066025836140b6565b915061391182614542565b604082019050919050565b6000613929601c836140b6565b915061393482614591565b602082019050919050565b600061394c6024836140b6565b9150613957826145ba565b604082019050919050565b600061396f6019836140b6565b915061397a82614609565b602082019050919050565b6000613992602c836140b6565b915061399d82614632565b604082019050919050565b60006139b56038836140b6565b91506139c082614681565b604082019050919050565b60006139d8602a836140b6565b91506139e3826146d0565b604082019050919050565b60006139fb6029836140b6565b9150613a068261471f565b604082019050919050565b6000613a1e602e836140b6565b9150613a298261476e565b604082019050919050565b6000613a416010836140b6565b9150613a4c826147bd565b602082019050919050565b6000613a646020836140b6565b9150613a6f826147e6565b602082019050919050565b6000613a876031836140b6565b9150613a928261480f565b604082019050919050565b6000613aaa602c836140b6565b9150613ab58261485e565b604082019050919050565b6000613acd602f836140b6565b9150613ad8826148ad565b604082019050919050565b6000613af06021836140b6565b9150613afb826148fc565b604082019050919050565b6000613b136031836140b6565b9150613b1e8261494b565b604082019050919050565b6000613b36602c836140b6565b9150613b418261499a565b604082019050919050565b6000613b596017836140c7565b9150613b64826149e9565b601782019050919050565b6000613b7c6030836140b6565b9150613b8782614a12565b604082019050919050565b6000613b9f6011836140c7565b9150613baa82614a61565b601182019050919050565b6000613bc2602f836140b6565b9150613bcd82614a8a565b604082019050919050565b613be18161425b565b82525050565b6000613bf3828561385f565b9150613bff828461385f565b91508190509392505050565b6000613c1682613b4c565b9150613c22828561385f565b9150613c2d82613b92565b9150613c39828461385f565b91508190509392505050565b6000602082019050613c5a60008301846137c0565b92915050565b6000608082019050613c7560008301876137c0565b613c8260208301866137c0565b613c8f6040830185613bd8565b8181036060830152613ca181846137ed565b905095945050505050565b6000602082019050613cc160008301846137cf565b92915050565b6000602082019050613cdc60008301846137de565b92915050565b6000604082019050613cf760008301856137de565b613d0460208301846137c0565b9392505050565b60006020820190508181036000830152613d258184613826565b905092915050565b60006020820190508181036000830152613d4681613890565b9050919050565b60006020820190508181036000830152613d66816138b3565b9050919050565b60006020820190508181036000830152613d86816138d6565b9050919050565b60006020820190508181036000830152613da6816138f9565b9050919050565b60006020820190508181036000830152613dc68161391c565b9050919050565b60006020820190508181036000830152613de68161393f565b9050919050565b60006020820190508181036000830152613e0681613962565b9050919050565b60006020820190508181036000830152613e2681613985565b9050919050565b60006020820190508181036000830152613e46816139a8565b9050919050565b60006020820190508181036000830152613e66816139cb565b9050919050565b60006020820190508181036000830152613e86816139ee565b9050919050565b60006020820190508181036000830152613ea681613a11565b9050919050565b60006020820190508181036000830152613ec681613a34565b9050919050565b60006020820190508181036000830152613ee681613a57565b9050919050565b60006020820190508181036000830152613f0681613a7a565b9050919050565b60006020820190508181036000830152613f2681613a9d565b9050919050565b60006020820190508181036000830152613f4681613ac0565b9050919050565b60006020820190508181036000830152613f6681613ae3565b9050919050565b60006020820190508181036000830152613f8681613b06565b9050919050565b60006020820190508181036000830152613fa681613b29565b9050919050565b60006020820190508181036000830152613fc681613b6f565b9050919050565b60006020820190508181036000830152613fe681613bb5565b9050919050565b60006020820190506140026000830184613bd8565b92915050565b6000614012614023565b905061401e8282614303565b919050565b6000604051905090565b600067ffffffffffffffff8211156140485761404761443b565b5b6140518261446a565b9050602081019050919050565b600067ffffffffffffffff8211156140795761407861443b565b5b6140828261446a565b9050602081019050919050565b600081519050919050565b600081519050919050565b600082825260208201905092915050565b600082825260208201905092915050565b600081905092915050565b60006140dd8261425b565b91506140e88361425b565b9250827fffffffffffffffffffffffffffffffffffffffffffffffffffffffffffffffff0382111561411d5761411c6143ae565b5b828201905092915050565b60006141338261425b565b915061413e8361425b565b92508261414e5761414d6143dd565b5b828204905092915050565b60006141648261425b565b915061416f8361425b565b9250817fffffffffffffffffffffffffffffffffffffffffffffffffffffffffffffffff04831182151516156141a8576141a76143ae565b5b828202905092915050565b60006141be8261425b565b91506141c98361425b565b9250828210156141dc576141db6143ae565b5b828203905092915050565b60006141f28261423b565b9050919050565b60008115159050919050565b6000819050919050565b60007fffffffff0000000000000000000000000000000000000000000000000000000082169050919050565b600073ffffffffffffffffffffffffffffffffffffffff82169050919050565b6000819050919050565b82818337600083830152505050565b60005b83811015614292578082015181840152602081019050614277565b838111156142a1576000848401525b50505050565b60006142b28261425b565b915060008214156142c6576142c56143ae565b5b600182039050919050565b600060028204905060018216806142e957607f821691505b602082108114156142fd576142fc61440c565b5b50919050565b61430c8261446a565b810181811067ffffffffffffffff8211171561432b5761432a61443b565b5b80604052505050565b600061433f8261425b565b91507fffffffffffffffffffffffffffffffffffffffffffffffffffffffffffffffff821415614372576143716143ae565b5b600182019050919050565b60006143888261425b565b91506143938361425b565b9250826143a3576143a26143dd565b5b828206905092915050565b7f4e487b7100000000000000000000000000000000000000000000000000000000600052601160045260246000fd5b7f4e487b7100000000000000000000000000000000000000000000000000000000600052601260045260246000fd5b7f4e487b7100000000000000000000000000000000000000000000000000000000600052602260045260246000fd5b7f4e487b7100000000000000000000000000000000000000000000000000000000600052604160045260246000fd5b6000601f19601f8301169050919050565b7f537472696e67733a20686578206c656e67746820696e73756666696369656e74600082015250565b7f455243373231456e756d657261626c653a206f776e657220696e646578206f7560008201527f74206f6620626f756e6473000000000000000000000000000000000000000000602082015250565b7f4552433732313a207472616e7366657220746f206e6f6e20455243373231526560008201527f63656976657220696d706c656d656e7465720000000000000000000000000000602082015250565b7f4552433732313a207472616e736665722066726f6d20696e636f72726563742060008201527f6f776e6572000000000000000000000000000000000000000000000000000000602082015250565b7f4552433732313a20746f6b656e20616c7265616479206d696e74656400000000600082015250565b7f4552433732313a207472616e7366657220746f20746865207a65726f2061646460008201527f7265737300000000000000000000000000000000000000000000000000000000602082015250565b7f4552433732313a20617070726f766520746f2063616c6c657200000000000000600082015250565b7f4552433732313a206f70657261746f7220717565727920666f72206e6f6e657860008201527f697374656e7420746f6b656e0000000000000000000000000000000000000000602082015250565b7f4552433732313a20617070726f76652063616c6c6572206973206e6f74206f7760008201527f6e6572206e6f7220617070726f76656420666f7220616c6c0000000000000000602082015250565b7f4552433732313a2062616c616e636520717565727920666f7220746865207a6560008201527f726f206164647265737300000000000000000000000000000000000000000000602082015250565b7f4552433732313a206f776e657220717565727920666f72206e6f6e657869737460008201527f656e7420746f6b656e0000000000000000000000000000000000000000000000602082015250565b7f45524337323155524953746f726167653a2055524920736574206f66206e6f6e60008201527f6578697374656e7420746f6b656e000000000000000000000000000000000000602082015250565b7f557365722069732044697361626c656400000000000000000000000000000000600082015250565b7f4552433732313a206d696e7420746f20746865207a65726f2061646472657373600082015250565b7f45524337323155524953746f726167653a2055524920717565727920666f722060008201527f6e6f6e6578697374656e7420746f6b656e000000000000000000000000000000602082015250565b7f4552433732313a20617070726f76656420717565727920666f72206e6f6e657860008201527f697374656e7420746f6b656e0000000000000000000000000000000000000000602082015250565b7f4552433732314d657461646174613a2055524920717565727920666f72206e6f60008201527f6e6578697374656e7420746f6b656e0000000000000000000000000000000000602082015250565b7f4552433732313a20617070726f76616c20746f2063757272656e74206f776e6560008201527f7200000000000000000000000000000000000000000000000000000000000000602082015250565b7f4552433732313a207472616e736665722063616c6c6572206973206e6f74206f60008201527f776e6572206e6f7220617070726f766564000000000000000000000000000000602082015250565b7f455243373231456e756d657261626c653a20676c6f62616c20696e646578206f60008201527f7574206f6620626f756e64730000000000000000000000000000000000000000602082015250565b7f416363657373436f6e74726f6c3a206163636f756e7420000000000000000000600082015250565b7f4552433732314275726e61626c653a2063616c6c6572206973206e6f74206f7760008201527f6e6572206e6f7220617070726f76656400000000000000000000000000000000602082015250565b7f206973206d697373696e6720726f6c6520000000000000000000000000000000600082015250565b7f416363657373436f6e74726f6c3a2063616e206f6e6c792072656e6f756e636560008201527f20726f6c657320666f722073656c660000000000000000000000000000000000602082015250565b614ae2816141e7565b8114614aed57600080fd5b50565b614af9816141f9565b8114614b0457600080fd5b50565b614b1081614205565b8114614b1b57600080fd5b50565b614b278161420f565b8114614b3257600080fd5b50565b614b3e8161425b565b8114614b4957600080fd5b5056fea264697066735822122043f065e2c6eac91891d815fcecc1365259aa94339bed4f8750591b63fed0d02264736f6c63430008040033",
  "linkReferences": {},
  "deployedLinkReferences": {}
}