{
  "_format": "hh-sol-artifact-1",
  "contractName": "UserToken",
  "sourceName": "contracts/UserToken.sol",
  "abi": [
    {
      "inputs": [],
      "stateMutability": "nonpayable",
      "type": "constructor"
    },
    {
      "anonymous": false,
      "inputs": [
        {
          "indexed": true,
          "internalType": "address",
          "name": "owner",
          "type": "address"
        },
        {
          "indexed": true,
          "internalType": "address",
          "name": "approved",
          "type": "address"
        },
        {
          "indexed": true,
          "internalType": "uint256",
          "name": "tokenId",
          "type": "uint256"
        }
      ],
      "name": "Approval",
      "type": "event"
    },
    {
      "anonymous": false,
      "inputs": [
        {
          "indexed": true,
          "internalType": "address",
          "name": "owner",
          "type": "address"
        },
        {
          "indexed": true,
          "internalType": "address",
          "name": "operator",
          "type": "address"
        },
        {
          "indexed": false,
          "internalType": "bool",
          "name": "approved",
          "type": "bool"
        }
      ],
      "name": "ApprovalForAll",
      "type": "event"
    },
    {
      "anonymous": false,
      "inputs": [
        {
          "indexed": true,
          "internalType": "bytes32",
          "name": "role",
          "type": "bytes32"
        },
        {
          "indexed": true,
          "internalType": "bytes32",
          "name": "previousAdminRole",
          "type": "bytes32"
        },
        {
          "indexed": true,
          "internalType": "bytes32",
          "name": "newAdminRole",
          "type": "bytes32"
        }
      ],
      "name": "RoleAdminChanged",
      "type": "event"
    },
    {
      "anonymous": false,
      "inputs": [
        {
          "indexed": true,
          "internalType": "bytes32",
          "name": "role",
          "type": "bytes32"
        },
        {
          "indexed": true,
          "internalType": "address",
          "name": "account",
          "type": "address"
        },
        {
          "indexed": true,
          "internalType": "address",
          "name": "sender",
          "type": "address"
        }
      ],
      "name": "RoleGranted",
      "type": "event"
    },
    {
      "anonymous": false,
      "inputs": [
        {
          "indexed": true,
          "internalType": "bytes32",
          "name": "role",
          "type": "bytes32"
        },
        {
          "indexed": true,
          "internalType": "address",
          "name": "account",
          "type": "address"
        },
        {
          "indexed": true,
          "internalType": "address",
          "name": "sender",
          "type": "address"
        }
      ],
      "name": "RoleRevoked",
      "type": "event"
    },
    {
      "anonymous": false,
      "inputs": [
        {
          "indexed": true,
          "internalType": "address",
          "name": "from",
          "type": "address"
        },
        {
          "indexed": true,
          "internalType": "address",
          "name": "to",
          "type": "address"
        },
        {
          "indexed": true,
          "internalType": "uint256",
          "name": "tokenId",
          "type": "uint256"
        }
      ],
      "name": "Transfer",
      "type": "event"
    },
    {
      "anonymous": false,
      "inputs": [
        {
          "indexed": true,
          "internalType": "address",
          "name": "to",
          "type": "address"
        },
        {
          "indexed": true,
          "internalType": "string",
          "name": "uri",
          "type": "string"
        }
      ],
      "name": "userMint",
      "type": "event"
    },
    {
      "inputs": [],
      "name": "DEFAULT_ADMIN_ROLE",
      "outputs": [
        {
          "internalType": "bytes32",
          "name": "",
          "type": "bytes32"
        }
      ],
      "stateMutability": "view",
      "type": "function"
    },
    {
      "inputs": [],
      "name": "DISABLED_ROLE",
      "outputs": [
        {
          "internalType": "bytes32",
          "name": "",
          "type": "bytes32"
        }
      ],
      "stateMutability": "view",
      "type": "function"
    },
    {
      "inputs": [],
      "name": "MINTER_ROLE",
      "outputs": [
        {
          "internalType": "bytes32",
          "name": "",
          "type": "bytes32"
        }
      ],
      "stateMutability": "view",
      "type": "function"
    },
    {
      "inputs": [
        {
          "internalType": "address",
          "name": "to",
          "type": "address"
        },
        {
          "internalType": "uint256",
          "name": "tokenId",
          "type": "uint256"
        }
      ],
      "name": "approve",
      "outputs": [],
      "stateMutability": "nonpayable",
      "type": "function"
    },
    {
      "inputs": [
        {
          "internalType": "address",
          "name": "owner",
          "type": "address"
        }
      ],
      "name": "balanceOf",
      "outputs": [
        {
          "internalType": "uint256",
          "name": "",
          "type": "uint256"
        }
      ],
      "stateMutability": "view",
      "type": "function"
    },
    {
      "inputs": [
        {
          "internalType": "uint256",
          "name": "tokenId",
          "type": "uint256"
        }
      ],
      "name": "burn",
      "outputs": [],
      "stateMutability": "nonpayable",
      "type": "function"
    },
    {
      "inputs": [
        {
          "internalType": "bytes32",
          "name": "_hash",
          "type": "bytes32"
        }
      ],
      "name": "checkUser",
      "outputs": [
        {
          "internalType": "bool",
          "name": "",
          "type": "bool"
        }
      ],
      "stateMutability": "view",
      "type": "function"
    },
    {
      "inputs": [
        {
          "internalType": "address",
          "name": "to",
          "type": "address"
        }
      ],
      "name": "disableUser",
      "outputs": [
        {
          "internalType": "bool",
          "name": "",
          "type": "bool"
        }
      ],
      "stateMutability": "nonpayable",
      "type": "function"
    },
    {
      "inputs": [
        {
          "internalType": "uint256",
          "name": "tokenId",
          "type": "uint256"
        }
      ],
      "name": "getApproved",
      "outputs": [
        {
          "internalType": "address",
          "name": "",
          "type": "address"
        }
      ],
      "stateMutability": "view",
      "type": "function"
    },
    {
      "inputs": [
        {
          "internalType": "bytes32",
          "name": "role",
          "type": "bytes32"
        }
      ],
      "name": "getRoleAdmin",
      "outputs": [
        {
          "internalType": "bytes32",
          "name": "",
          "type": "bytes32"
        }
      ],
      "stateMutability": "view",
      "type": "function"
    },
    {
      "inputs": [
        {
          "internalType": "bytes32",
          "name": "role",
          "type": "bytes32"
        },
        {
          "internalType": "uint256",
          "name": "index",
          "type": "uint256"
        }
      ],
      "name": "getRoleMember",
      "outputs": [
        {
          "internalType": "address",
          "name": "",
          "type": "address"
        }
      ],
      "stateMutability": "view",
      "type": "function"
    },
    {
      "inputs": [
        {
          "internalType": "bytes32",
          "name": "role",
          "type": "bytes32"
        }
      ],
      "name": "getRoleMemberCount",
      "outputs": [
        {
          "internalType": "uint256",
          "name": "",
          "type": "uint256"
        }
      ],
      "stateMutability": "view",
      "type": "function"
    },
    {
      "inputs": [
        {
          "internalType": "uint256",
          "name": "index",
          "type": "uint256"
        }
      ],
      "name": "getUser",
      "outputs": [
        {
          "internalType": "address",
          "name": "",
          "type": "address"
        }
      ],
      "stateMutability": "view",
      "type": "function"
    },
    {
      "inputs": [
        {
          "internalType": "address",
          "name": "addr",
          "type": "address"
        }
      ],
      "name": "getUserInfo",
      "outputs": [
        {
          "internalType": "string",
          "name": "",
          "type": "string"
        }
      ],
      "stateMutability": "view",
      "type": "function"
    },
    {
      "inputs": [],
      "name": "getUsers",
      "outputs": [
        {
          "internalType": "uint256",
          "name": "",
          "type": "uint256"
        }
      ],
      "stateMutability": "view",
      "type": "function"
    },
    {
      "inputs": [
        {
          "internalType": "bytes32",
          "name": "role",
          "type": "bytes32"
        },
        {
          "internalType": "address",
          "name": "account",
          "type": "address"
        }
      ],
      "name": "grantRole",
      "outputs": [],
      "stateMutability": "nonpayable",
      "type": "function"
    },
    {
      "inputs": [
        {
          "internalType": "bytes32",
          "name": "role",
          "type": "bytes32"
        },
        {
          "internalType": "address",
          "name": "account",
          "type": "address"
        }
      ],
      "name": "hasRole",
      "outputs": [
        {
          "internalType": "bool",
          "name": "",
          "type": "bool"
        }
      ],
      "stateMutability": "view",
      "type": "function"
    },
    {
      "inputs": [
        {
          "internalType": "address",
          "name": "owner",
          "type": "address"
        },
        {
          "internalType": "address",
          "name": "operator",
          "type": "address"
        }
      ],
      "name": "isApprovedForAll",
      "outputs": [
        {
          "internalType": "bool",
          "name": "",
          "type": "bool"
        }
      ],
      "stateMutability": "view",
      "type": "function"
    },
    {
      "inputs": [],
      "name": "name",
      "outputs": [
        {
          "internalType": "string",
          "name": "",
          "type": "string"
        }
      ],
      "stateMutability": "view",
      "type": "function"
    },
    {
      "inputs": [
        {
          "internalType": "uint256",
          "name": "tokenId",
          "type": "uint256"
        }
      ],
      "name": "ownerOf",
      "outputs": [
        {
          "internalType": "address",
          "name": "",
          "type": "address"
        }
      ],
      "stateMutability": "view",
      "type": "function"
    },
    {
      "inputs": [
        {
          "internalType": "bytes32",
          "name": "role",
          "type": "bytes32"
        },
        {
          "internalType": "address",
          "name": "account",
          "type": "address"
        }
      ],
      "name": "renounceRole",
      "outputs": [],
      "stateMutability": "nonpayable",
      "type": "function"
    },
    {
      "inputs": [
        {
          "internalType": "bytes32",
          "name": "role",
          "type": "bytes32"
        },
        {
          "internalType": "address",
          "name": "account",
          "type": "address"
        }
      ],
      "name": "revokeRole",
      "outputs": [],
      "stateMutability": "nonpayable",
      "type": "function"
    },
    {
      "inputs": [
        {
          "internalType": "address",
          "name": "to",
          "type": "address"
        },
        {
          "internalType": "string",
          "name": "uri",
          "type": "string"
        },
        {
          "internalType": "bytes32",
          "name": "_hash",
          "type": "bytes32"
        }
      ],
      "name": "safeMint",
      "outputs": [],
      "stateMutability": "nonpayable",
      "type": "function"
    },
    {
      "inputs": [
        {
          "internalType": "address",
          "name": "from",
          "type": "address"
        },
        {
          "internalType": "address",
          "name": "to",
          "type": "address"
        },
        {
          "internalType": "uint256",
          "name": "tokenId",
          "type": "uint256"
        }
      ],
      "name": "safeTransferFrom",
      "outputs": [],
      "stateMutability": "nonpayable",
      "type": "function"
    },
    {
      "inputs": [
        {
          "internalType": "address",
          "name": "from",
          "type": "address"
        },
        {
          "internalType": "address",
          "name": "to",
          "type": "address"
        },
        {
          "internalType": "uint256",
          "name": "tokenId",
          "type": "uint256"
        },
        {
          "internalType": "bytes",
          "name": "_data",
          "type": "bytes"
        }
      ],
      "name": "safeTransferFrom",
      "outputs": [],
      "stateMutability": "nonpayable",
      "type": "function"
    },
    {
      "inputs": [
        {
          "internalType": "address",
          "name": "operator",
          "type": "address"
        },
        {
          "internalType": "bool",
          "name": "approved",
          "type": "bool"
        }
      ],
      "name": "setApprovalForAll",
      "outputs": [],
      "stateMutability": "nonpayable",
      "type": "function"
    },
    {
      "inputs": [
        {
          "internalType": "bytes4",
          "name": "interfaceId",
          "type": "bytes4"
        }
      ],
      "name": "supportsInterface",
      "outputs": [
        {
          "internalType": "bool",
          "name": "",
          "type": "bool"
        }
      ],
      "stateMutability": "view",
      "type": "function"
    },
    {
      "inputs": [],
      "name": "symbol",
      "outputs": [
        {
          "internalType": "string",
          "name": "",
          "type": "string"
        }
      ],
      "stateMutability": "view",
      "type": "function"
    },
    {
      "inputs": [
        {
          "internalType": "uint256",
          "name": "index",
          "type": "uint256"
        }
      ],
      "name": "tokenByIndex",
      "outputs": [
        {
          "internalType": "uint256",
          "name": "",
          "type": "uint256"
        }
      ],
      "stateMutability": "view",
      "type": "function"
    },
    {
      "inputs": [
        {
          "internalType": "address",
          "name": "owner",
          "type": "address"
        },
        {
          "internalType": "uint256",
          "name": "index",
          "type": "uint256"
        }
      ],
      "name": "tokenOfOwnerByIndex",
      "outputs": [
        {
          "internalType": "uint256",
          "name": "",
          "type": "uint256"
        }
      ],
      "stateMutability": "view",
      "type": "function"
    },
    {
      "inputs": [
        {
          "internalType": "uint256",
          "name": "tokenId",
          "type": "uint256"
        }
      ],
      "name": "tokenURI",
      "outputs": [
        {
          "internalType": "string",
          "name": "",
          "type": "string"
        }
      ],
      "stateMutability": "view",
      "type": "function"
    },
    {
      "inputs": [],
      "name": "totalSupply",
      "outputs": [
        {
          "internalType": "uint256",
          "name": "",
          "type": "uint256"
        }
      ],
      "stateMutability": "view",
      "type": "function"
    },
    {
      "inputs": [
        {
          "internalType": "address",
          "name": "from",
          "type": "address"
        },
        {
          "internalType": "address",
          "name": "to",
          "type": "address"
        },
        {
          "internalType": "uint256",
          "name": "tokenId",
          "type": "uint256"
        }
      ],
      "name": "transferFrom",
      "outputs": [],
      "stateMutability": "nonpayable",
      "type": "function"
    },
    {
      "inputs": [
        {
          "internalType": "address",
          "name": "_to",
          "type": "address"
        }
      ],
      "name": "updateUserBalance",
      "outputs": [
        {
          "internalType": "bool",
          "name": "",
          "type": "bool"
        }
      ],
      "stateMutability": "payable",
      "type": "function"
    },
    {
      "inputs": [
        {
          "internalType": "uint256",
          "name": "tokenId",
          "type": "uint256"
        },
        {
          "internalType": "string",
          "name": "uri",
          "type": "string"
        }
      ],
      "name": "updateUserMetadata",
      "outputs": [],
      "stateMutability": "nonpayable",
      "type": "function"
    },
    {
      "stateMutability": "payable",
      "type": "receive"
    }
  ],
  "bytecode": "0x60806040523480156200001157600080fd5b506040518060400160405280600981526020017f55736572546f6b656e00000000000000000000000000000000000000000000008152506040518060400160405280600381526020017f55544b0000000000000000000000000000000000000000000000000000000000815250816000908051906020019062000096929190620003c2565b508060019080519060200190620000af929190620003c2565b50505033600d60006101000a81548173ffffffffffffffffffffffffffffffffffffffff021916908373ffffffffffffffffffffffffffffffffffffffff160217905550620001086000801b336200014060201b60201c565b6200013a7f9f2df0fed2c77648de5860a4cc508cd0818c85b8b8a1ab4ceeef8d981c8956a6336200014060201b60201c565b620004d7565b6200015782826200018860201b620017091760201c565b6200018381600c60008581526020019081526020016000206200027a60201b620017ea1790919060201c565b505050565b6200019a8282620002b260201b60201c565b62000276576001600b600084815260200190815260200160002060000160008373ffffffffffffffffffffffffffffffffffffffff1673ffffffffffffffffffffffffffffffffffffffff16815260200190815260200160002060006101000a81548160ff0219169083151502179055506200021b6200031d60201b60201c565b73ffffffffffffffffffffffffffffffffffffffff168173ffffffffffffffffffffffffffffffffffffffff16837f2f8788117e7eff1d82e926ec794901d17c78024a50270940304540a733656f0d60405160405180910390a45b5050565b6000620002aa836000018373ffffffffffffffffffffffffffffffffffffffff1660001b6200032560201b60201c565b905092915050565b6000600b600084815260200190815260200160002060000160008373ffffffffffffffffffffffffffffffffffffffff1673ffffffffffffffffffffffffffffffffffffffff16815260200190815260200160002060009054906101000a900460ff16905092915050565b600033905090565b60006200033983836200039f60201b60201c565b6200039457826000018290806001815401808255809150506001900390600052602060002001600090919091909150558260000180549050836001016000848152602001908152602001600020819055506001905062000399565b600090505b92915050565b600080836001016000848152602001908152602001600020541415905092915050565b828054620003d09062000472565b90600052602060002090601f016020900481019282620003f4576000855562000440565b82601f106200040f57805160ff191683800117855562000440565b8280016001018555821562000440579182015b828111156200043f57825182559160200191906001019062000422565b5b5090506200044f919062000453565b5090565b5b808211156200046e57600081600090555060010162000454565b5090565b600060028204905060018216806200048b57607f821691505b60208210811415620004a257620004a1620004a8565b5b50919050565b7f4e487b7100000000000000000000000000000000000000000000000000000000600052602260045260246000fd5b61508780620004e76000396000f3fe6080604052600436106102075760003560e01c80636386c1c711610118578063b0467deb116100a0578063ca15c8731161006f578063ca15c873146107f8578063d539139314610835578063d547741f14610860578063e985e9c514610889578063ee6649a1146108c65761020e565b8063b0467deb1461072c578063b88d4fde14610769578063c538d50c14610792578063c87b56dd146107bb5761020e565b806395d89b41116100e757806395d89b4114610652578063993ae7e91461067d578063a217fddf146106ad578063a22cb465146106d8578063a25038cf146107015761020e565b80636386c1c71461055e57806370a082311461059b5780639010d07c146105d857806391d14854146106155761020e565b8063248a9ca31161019b57806342842e0e1161016a57806342842e0e1461046957806342966c68146104925780634e038a27146104bb5780634f6ccce7146104e45780636352211e146105215761020e565b8063248a9ca31461039d5780632f2ff15d146103da5780632f745c591461040357806336568abe146104405761020e565b8063095ea7b3116101d7578063095ea7b3146102e35780630b2551c21461030c57806318160ddd1461034957806323b872dd146103745761020e565b8062ce8e3e1461021357806301ffc9a71461023e57806306fdde031461027b578063081812fc146102a65761020e565b3661020e57005b600080fd5b34801561021f57600080fd5b50610228610903565b604051610235919061450d565b60405180910390f35b34801561024a57600080fd5b5061026560048036038101906102609190613c2e565b610943565b6040516102729190614215565b60405180910390f35b34801561028757600080fd5b50610290610955565b60405161029d919061424b565b60405180910390f35b3480156102b257600080fd5b506102cd60048036038101906102c89190613c80565b6109e7565b6040516102da91906141ae565b60405180910390f35b3480156102ef57600080fd5b5061030a60048036038101906103059190613b51565b610a6c565b005b34801561031857600080fd5b50610333600480360381019061032e9190613b8d565b610b84565b6040516103409190614215565b60405180910390f35b34801561035557600080fd5b5061035e610be1565b60405161036b919061450d565b60405180910390f35b34801561038057600080fd5b5061039b600480360381019061039691906139e4565b610bee565b005b3480156103a957600080fd5b506103c460048036038101906103bf9190613b8d565b610c4e565b6040516103d19190614230565b60405180910390f35b3480156103e657600080fd5b5061040160048036038101906103fc9190613bb6565b610c6e565b005b34801561040f57600080fd5b5061042a60048036038101906104259190613b51565b610c97565b604051610437919061450d565b60405180910390f35b34801561044c57600080fd5b5061046760048036038101906104629190613bb6565b610d3c565b005b34801561047557600080fd5b50610490600480360381019061048b91906139e4565b610dbf565b005b34801561049e57600080fd5b506104b960048036038101906104b49190613c80565b610ddf565b005b3480156104c757600080fd5b506104e260048036038101906104dd9190613aea565b610e3b565b005b3480156104f057600080fd5b5061050b60048036038101906105069190613c80565b610fb1565b604051610518919061450d565b60405180910390f35b34801561052d57600080fd5b5061054860048036038101906105439190613c80565b611048565b60405161055591906141ae565b60405180910390f35b34801561056a57600080fd5b506105856004803603810190610580919061397f565b6110fa565b604051610592919061424b565b60405180910390f35b3480156105a757600080fd5b506105c260048036038101906105bd919061397f565b61114f565b6040516105cf919061450d565b60405180910390f35b3480156105e457600080fd5b506105ff60048036038101906105fa9190613bf2565b611207565b60405161060c91906141ae565b60405180910390f35b34801561062157600080fd5b5061063c60048036038101906106379190613bb6565b611236565b6040516106499190614215565b60405180910390f35b34801561065e57600080fd5b506106676112a1565b604051610674919061424b565b60405180910390f35b6106976004803603810190610692919061397f565b611333565b6040516106a49190614215565b60405180910390f35b3480156106b957600080fd5b506106c26113dd565b6040516106cf9190614230565b60405180910390f35b3480156106e457600080fd5b506106ff60048036038101906106fa9190613aae565b6113e4565b005b34801561070d57600080fd5b506107166113fa565b6040516107239190614230565b60405180910390f35b34801561073857600080fd5b50610753600480360381019061074e9190613c80565b61141e565b60405161076091906141ae565b60405180910390f35b34801561077557600080fd5b50610790600480360381019061078b9190613a33565b6114bf565b005b34801561079e57600080fd5b506107b960048036038101906107b49190613ca9565b611521565b005b3480156107c757600080fd5b506107e260048036038101906107dd9190613c80565b611562565b6040516107ef919061424b565b60405180910390f35b34801561080457600080fd5b5061081f600480360381019061081a9190613b8d565b611574565b60405161082c919061450d565b60405180910390f35b34801561084157600080fd5b5061084a611598565b6040516108579190614230565b60405180910390f35b34801561086c57600080fd5b5061088760048036038101906108829190613bb6565b6115bc565b005b34801561089557600080fd5b506108b060048036038101906108ab91906139a8565b6115e5565b6040516108bd9190614215565b60405180910390f35b3480156108d257600080fd5b506108ed60048036038101906108e8919061397f565b611679565b6040516108fa9190614215565b60405180910390f35b60007f9f2df0fed2c77648de5860a4cc508cd0818c85b8b8a1ab4ceeef8d981c8956a66109378161093261181a565b611822565b600e8054905091505090565b600061094e826118bf565b9050919050565b606060008054610964906147fc565b80601f0160208091040260200160405190810160405280929190818152602001828054610990906147fc565b80156109dd5780601f106109b2576101008083540402835291602001916109dd565b820191906000526020600020905b8154815290600101906020018083116109c057829003601f168201915b5050505050905090565b60006109f282611939565b610a31576040517f08c379a0000000000000000000000000000000000000000000000000000000008152600401610a289061442d565b60405180910390fd5b6004600083815260200190815260200160002060009054906101000a900473ffffffffffffffffffffffffffffffffffffffff169050919050565b6000610a7782611048565b90508073ffffffffffffffffffffffffffffffffffffffff168373ffffffffffffffffffffffffffffffffffffffff161415610ae8576040517f08c379a0000000000000000000000000000000000000000000000000000000008152600401610adf9061446d565b60405180910390fd5b8073ffffffffffffffffffffffffffffffffffffffff16610b0761181a565b73ffffffffffffffffffffffffffffffffffffffff161480610b365750610b3581610b3061181a565b6115e5565b5b610b75576040517f08c379a0000000000000000000000000000000000000000000000000000000008152600401610b6c9061436d565b60405180910390fd5b610b7f83836119a5565b505050565b60007f9f2df0fed2c77648de5860a4cc508cd0818c85b8b8a1ab4ceeef8d981c8956a6610bb881610bb361181a565b611822565b6010600084815260200190815260200160002060009054906101000a900460ff16915050919050565b6000600880549050905090565b610bff610bf961181a565b82611a5e565b610c3e576040517f08c379a0000000000000000000000000000000000000000000000000000000008152600401610c359061448d565b60405180910390fd5b610c49838383611b3c565b505050565b6000600b6000838152602001908152602001600020600101549050919050565b610c7782610c4e565b610c8881610c8361181a565b611822565b610c928383611da3565b505050565b6000610ca28361114f565b8210610ce3576040517f08c379a0000000000000000000000000000000000000000000000000000000008152600401610cda9061428d565b60405180910390fd5b600660008473ffffffffffffffffffffffffffffffffffffffff1673ffffffffffffffffffffffffffffffffffffffff168152602001908152602001600020600083815260200190815260200160002054905092915050565b610d4461181a565b73ffffffffffffffffffffffffffffffffffffffff168173ffffffffffffffffffffffffffffffffffffffff1614610db1576040517f08c379a0000000000000000000000000000000000000000000000000000000008152600401610da8906144ed565b60405180910390fd5b610dbb8282611dd7565b5050565b610dda838383604051806020016040528060008152506114bf565b505050565b610df0610dea61181a565b82611a5e565b610e2f576040517f08c379a0000000000000000000000000000000000000000000000000000000008152600401610e26906144cd565b60405180910390fd5b610e3881611e0b565b50565b7f9f2df0fed2c77648de5860a4cc508cd0818c85b8b8a1ab4ceeef8d981c8956a6610e6d81610e6861181a565b611822565b6000610e796011611e17565b9050600e859080600181540180825580915050600190039060005260206000200160009091909190916101000a81548173ffffffffffffffffffffffffffffffffffffffff021916908373ffffffffffffffffffffffffffffffffffffffff160217905550600f83908060018154018082558091505060019003906000526020600020016000909190919091505560016010600085815260200190815260200160002060006101000a81548160ff021916908315150217905550610f3d6011611e25565b610f478582611e3b565b610f518185611e59565b83604051610f5f9190614124565b60405180910390208573ffffffffffffffffffffffffffffffffffffffff167f5f91c81f2adf7591782f5cf5ec86843bf878af69ee2ea49bbdf37f4c6fb2fff560405160405180910390a35050505050565b6000610fbb610be1565b8210610ffc576040517f08c379a0000000000000000000000000000000000000000000000000000000008152600401610ff3906144ad565b60405180910390fd5b60088281548110611036577f4e487b7100000000000000000000000000000000000000000000000000000000600052603260045260246000fd5b90600052602060002001549050919050565b6000806002600084815260200190815260200160002060009054906101000a900473ffffffffffffffffffffffffffffffffffffffff169050600073ffffffffffffffffffffffffffffffffffffffff168173ffffffffffffffffffffffffffffffffffffffff1614156110f1576040517f08c379a00000000000000000000000000000000000000000000000000000000081526004016110e8906143ad565b60405180910390fd5b80915050919050565b60607f9f2df0fed2c77648de5860a4cc508cd0818c85b8b8a1ab4ceeef8d981c8956a661112e8161112961181a565b611822565b600061113b846000610c97565b905061114681611562565b92505050919050565b60008073ffffffffffffffffffffffffffffffffffffffff168273ffffffffffffffffffffffffffffffffffffffff1614156111c0576040517f08c379a00000000000000000000000000000000000000000000000000000000081526004016111b79061438d565b60405180910390fd5b600360008373ffffffffffffffffffffffffffffffffffffffff1673ffffffffffffffffffffffffffffffffffffffff168152602001908152602001600020549050919050565b600061122e82600c6000868152602001908152602001600020611ecd90919063ffffffff16565b905092915050565b6000600b600084815260200190815260200160002060000160008373ffffffffffffffffffffffffffffffffffffffff1673ffffffffffffffffffffffffffffffffffffffff16815260200190815260200160002060009054906101000a900460ff16905092915050565b6060600180546112b0906147fc565b80601f01602080910402602001604051908101604052809291908181526020018280546112dc906147fc565b80156113295780601f106112fe57610100808354040283529160200191611329565b820191906000526020600020905b81548152906001019060200180831161130c57829003601f168201915b5050505050905090565b60007f9f2df0fed2c77648de5860a4cc508cd0818c85b8b8a1ab4ceeef8d981c8956a66113678161136261181a565b611822565b60008373ffffffffffffffffffffffffffffffffffffffff163460405161138d9061415f565b60006040518083038185875af1925050503d80600081146113ca576040519150601f19603f3d011682016040523d82523d6000602084013e6113cf565b606091505b505090508092505050919050565b6000801b81565b6113f66113ef61181a565b8383611ee7565b5050565b7fa525cde1cb1016e83acdcf1bd75f317fb68bb72cf5721ac56f746ad8529dae9981565b60007f9f2df0fed2c77648de5860a4cc508cd0818c85b8b8a1ab4ceeef8d981c8956a66114528161144d61181a565b611822565b600e838154811061148c577f4e487b7100000000000000000000000000000000000000000000000000000000600052603260045260246000fd5b9060005260206000200160009054906101000a900473ffffffffffffffffffffffffffffffffffffffff16915050919050565b6114d06114ca61181a565b83611a5e565b61150f576040517f08c379a00000000000000000000000000000000000000000000000000000000081526004016115069061448d565b60405180910390fd5b61151b84848484612054565b50505050565b7f9f2df0fed2c77648de5860a4cc508cd0818c85b8b8a1ab4ceeef8d981c8956a66115538161154e61181a565b611822565b61155d8383611e59565b505050565b606061156d826120b0565b9050919050565b6000611591600c6000848152602001908152602001600020612202565b9050919050565b7f9f2df0fed2c77648de5860a4cc508cd0818c85b8b8a1ab4ceeef8d981c8956a681565b6115c582610c4e565b6115d6816115d161181a565b611822565b6115e08383611dd7565b505050565b6000600560008473ffffffffffffffffffffffffffffffffffffffff1673ffffffffffffffffffffffffffffffffffffffff16815260200190815260200160002060008373ffffffffffffffffffffffffffffffffffffffff1673ffffffffffffffffffffffffffffffffffffffff16815260200190815260200160002060009054906101000a900460ff16905092915050565b60007f9f2df0fed2c77648de5860a4cc508cd0818c85b8b8a1ab4ceeef8d981c8956a66116ad816116a861181a565b611822565b6116d77fa525cde1cb1016e83acdcf1bd75f317fb68bb72cf5721ac56f746ad8529dae9984611da3565b6117017fa525cde1cb1016e83acdcf1bd75f317fb68bb72cf5721ac56f746ad8529dae9984611236565b915050919050565b6117138282611236565b6117e6576001600b600084815260200190815260200160002060000160008373ffffffffffffffffffffffffffffffffffffffff1673ffffffffffffffffffffffffffffffffffffffff16815260200190815260200160002060006101000a81548160ff02191690831515021790555061178b61181a565b73ffffffffffffffffffffffffffffffffffffffff168173ffffffffffffffffffffffffffffffffffffffff16837f2f8788117e7eff1d82e926ec794901d17c78024a50270940304540a733656f0d60405160405180910390a45b5050565b6000611812836000018373ffffffffffffffffffffffffffffffffffffffff1660001b612217565b905092915050565b600033905090565b61182c8282611236565b6118bb576118518173ffffffffffffffffffffffffffffffffffffffff166014612287565b61185f8360001c6020612287565b604051602001611870929190614174565b6040516020818303038152906040526040517f08c379a00000000000000000000000000000000000000000000000000000000081526004016118b2919061424b565b60405180910390fd5b5050565b60007f5a05180f000000000000000000000000000000000000000000000000000000007bffffffffffffffffffffffffffffffffffffffffffffffffffffffff1916827bffffffffffffffffffffffffffffffffffffffffffffffffffffffff19161480611932575061193182612581565b5b9050919050565b60008073ffffffffffffffffffffffffffffffffffffffff166002600084815260200190815260200160002060009054906101000a900473ffffffffffffffffffffffffffffffffffffffff1673ffffffffffffffffffffffffffffffffffffffff1614159050919050565b816004600083815260200190815260200160002060006101000a81548173ffffffffffffffffffffffffffffffffffffffff021916908373ffffffffffffffffffffffffffffffffffffffff160217905550808273ffffffffffffffffffffffffffffffffffffffff16611a1883611048565b73ffffffffffffffffffffffffffffffffffffffff167f8c5be1e5ebec7d5bd14f71427d1e84f3dd0314c0f7b2291e5b200ac8c7c3b92560405160405180910390a45050565b6000611a6982611939565b611aa8576040517f08c379a0000000000000000000000000000000000000000000000000000000008152600401611a9f9061434d565b60405180910390fd5b6000611ab383611048565b90508073ffffffffffffffffffffffffffffffffffffffff168473ffffffffffffffffffffffffffffffffffffffff161480611b2257508373ffffffffffffffffffffffffffffffffffffffff16611b0a846109e7565b73ffffffffffffffffffffffffffffffffffffffff16145b80611b335750611b3281856115e5565b5b91505092915050565b8273ffffffffffffffffffffffffffffffffffffffff16611b5c82611048565b73ffffffffffffffffffffffffffffffffffffffff1614611bb2576040517f08c379a0000000000000000000000000000000000000000000000000000000008152600401611ba9906142cd565b60405180910390fd5b600073ffffffffffffffffffffffffffffffffffffffff168273ffffffffffffffffffffffffffffffffffffffff161415611c22576040517f08c379a0000000000000000000000000000000000000000000000000000000008152600401611c199061430d565b60405180910390fd5b611c2d8383836125fb565b611c386000826119a5565b6001600360008573ffffffffffffffffffffffffffffffffffffffff1673ffffffffffffffffffffffffffffffffffffffff1681526020019081526020016000206000828254611c8891906146de565b925050819055506001600360008473ffffffffffffffffffffffffffffffffffffffff1673ffffffffffffffffffffffffffffffffffffffff1681526020019081526020016000206000828254611cdf91906145fd565b92505081905550816002600083815260200190815260200160002060006101000a81548173ffffffffffffffffffffffffffffffffffffffff021916908373ffffffffffffffffffffffffffffffffffffffff160217905550808273ffffffffffffffffffffffffffffffffffffffff168473ffffffffffffffffffffffffffffffffffffffff167fddf252ad1be2c89b69c2b068fc378daa952ba7f163c4a11628f55a4df523b3ef60405160405180910390a4611d9e83838361260b565b505050565b611dad8282611709565b611dd281600c60008581526020019081526020016000206117ea90919063ffffffff16565b505050565b611de18282612610565b611e0681600c60008581526020019081526020016000206126f290919063ffffffff16565b505050565b611e1481612722565b50565b600081600001549050919050565b6001816000016000828254019250508190555050565b611e55828260405180602001604052806000815250612775565b5050565b611e6282611939565b611ea1576040517f08c379a0000000000000000000000000000000000000000000000000000000008152600401611e98906143cd565b60405180910390fd5b80600a60008481526020019081526020016000209080519060200190611ec892919061374e565b505050565b6000611edc83600001836127d0565b60001c905092915050565b8173ffffffffffffffffffffffffffffffffffffffff168373ffffffffffffffffffffffffffffffffffffffff161415611f56576040517f08c379a0000000000000000000000000000000000000000000000000000000008152600401611f4d9061432d565b60405180910390fd5b80600560008573ffffffffffffffffffffffffffffffffffffffff1673ffffffffffffffffffffffffffffffffffffffff16815260200190815260200160002060008473ffffffffffffffffffffffffffffffffffffffff1673ffffffffffffffffffffffffffffffffffffffff16815260200190815260200160002060006101000a81548160ff0219169083151502179055508173ffffffffffffffffffffffffffffffffffffffff168373ffffffffffffffffffffffffffffffffffffffff167f17307eab39ab6107e8899845ad3d59bd9653f200f220920489ca2b5937696c31836040516120479190614215565b60405180910390a3505050565b61205f848484611b3c565b61206b84848484612821565b6120aa576040517f08c379a00000000000000000000000000000000000000000000000000000000081526004016120a1906142ad565b60405180910390fd5b50505050565b60606120bb82611939565b6120fa576040517f08c379a00000000000000000000000000000000000000000000000000000000081526004016120f19061440d565b60405180910390fd5b6000600a6000848152602001908152602001600020805461211a906147fc565b80601f0160208091040260200160405190810160405280929190818152602001828054612146906147fc565b80156121935780601f1061216857610100808354040283529160200191612193565b820191906000526020600020905b81548152906001019060200180831161217657829003601f168201915b5050505050905060006121a46129b8565b90506000815114156121ba5781925050506121fd565b6000825111156121ef5780826040516020016121d792919061413b565b604051602081830303815290604052925050506121fd565b6121f8846129cf565b925050505b919050565b600061221082600001612a76565b9050919050565b60006122238383612a87565b61227c578260000182908060018154018082558091505060019003906000526020600020016000909190919091505582600001805490508360010160008481526020019081526020016000208190555060019050612281565b600090505b92915050565b60606000600283600261229a9190614684565b6122a491906145fd565b67ffffffffffffffff8111156122e3577f4e487b7100000000000000000000000000000000000000000000000000000000600052604160045260246000fd5b6040519080825280601f01601f1916602001820160405280156123155781602001600182028036833780820191505090505b5090507f300000000000000000000000000000000000000000000000000000000000000081600081518110612373577f4e487b7100000000000000000000000000000000000000000000000000000000600052603260045260246000fd5b60200101907effffffffffffffffffffffffffffffffffffffffffffffffffffffffffffff1916908160001a9053507f7800000000000000000000000000000000000000000000000000000000000000816001815181106123fd577f4e487b7100000000000000000000000000000000000000000000000000000000600052603260045260246000fd5b60200101907effffffffffffffffffffffffffffffffffffffffffffffffffffffffffffff1916908160001a9053506000600184600261243d9190614684565b61244791906145fd565b90505b6001811115612533577f3031323334353637383961626364656600000000000000000000000000000000600f8616601081106124af577f4e487b7100000000000000000000000000000000000000000000000000000000600052603260045260246000fd5b1a60f81b8282815181106124ec577f4e487b7100000000000000000000000000000000000000000000000000000000600052603260045260246000fd5b60200101907effffffffffffffffffffffffffffffffffffffffffffffffffffffffffffff1916908160001a905350600485901c94508061252c906147d2565b905061244a565b5060008414612577576040517f08c379a000000000000000000000000000000000000000000000000000000000815260040161256e9061426d565b60405180910390fd5b8091505092915050565b60007f7965db0b000000000000000000000000000000000000000000000000000000007bffffffffffffffffffffffffffffffffffffffffffffffffffffffff1916827bffffffffffffffffffffffffffffffffffffffffffffffffffffffff191614806125f457506125f382612aaa565b5b9050919050565b612606838383612b24565b505050565b505050565b61261a8282611236565b156126ee576000600b600084815260200190815260200160002060000160008373ffffffffffffffffffffffffffffffffffffffff1673ffffffffffffffffffffffffffffffffffffffff16815260200190815260200160002060006101000a81548160ff02191690831515021790555061269361181a565b73ffffffffffffffffffffffffffffffffffffffff168173ffffffffffffffffffffffffffffffffffffffff16837ff6391f5c32d9c69d2a47ea670b442974b53935d1edc7fd64eb21e047a839171b60405160405180910390a45b5050565b600061271a836000018373ffffffffffffffffffffffffffffffffffffffff1660001b612c38565b905092915050565b61272b81612dbe565b6000600a6000838152602001908152602001600020805461274b906147fc565b90501461277257600a6000828152602001908152602001600020600061277191906137d4565b5b50565b61277f8383612edb565b61278c6000848484612821565b6127cb576040517f08c379a00000000000000000000000000000000000000000000000000000000081526004016127c2906142ad565b60405180910390fd5b505050565b600082600001828154811061280e577f4e487b7100000000000000000000000000000000000000000000000000000000600052603260045260246000fd5b9060005260206000200154905092915050565b60006128428473ffffffffffffffffffffffffffffffffffffffff166130b5565b156129ab578373ffffffffffffffffffffffffffffffffffffffff1663150b7a0261286b61181a565b8786866040518563ffffffff1660e01b815260040161288d94939291906141c9565b602060405180830381600087803b1580156128a757600080fd5b505af19250505080156128d857506040513d601f19601f820116820180604052508101906128d59190613c57565b60015b61295b573d8060008114612908576040519150601f19603f3d011682016040523d82523d6000602084013e61290d565b606091505b50600081511415612953576040517f08c379a000000000000000000000000000000000000000000000000000000000815260040161294a906142ad565b60405180910390fd5b805181602001fd5b63150b7a0260e01b7bffffffffffffffffffffffffffffffffffffffffffffffffffffffff1916817bffffffffffffffffffffffffffffffffffffffffffffffffffffffff1916149150506129b0565b600190505b949350505050565b606060405180602001604052806000815250905090565b60606129da82611939565b612a19576040517f08c379a0000000000000000000000000000000000000000000000000000000008152600401612a109061444d565b60405180910390fd5b6000612a236129b8565b90506000815111612a435760405180602001604052806000815250612a6e565b80612a4d846130d8565b604051602001612a5e92919061413b565b6040516020818303038152906040525b915050919050565b600081600001805490509050919050565b600080836001016000848152602001908152602001600020541415905092915050565b60007f780e9d63000000000000000000000000000000000000000000000000000000007bffffffffffffffffffffffffffffffffffffffffffffffffffffffff1916827bffffffffffffffffffffffffffffffffffffffffffffffffffffffff19161480612b1d5750612b1c82613285565b5b9050919050565b612b2f838383613367565b600073ffffffffffffffffffffffffffffffffffffffff168373ffffffffffffffffffffffffffffffffffffffff161415612b7257612b6d8161336c565b612bb1565b8173ffffffffffffffffffffffffffffffffffffffff168373ffffffffffffffffffffffffffffffffffffffff1614612bb057612baf83826133b5565b5b5b600073ffffffffffffffffffffffffffffffffffffffff168273ffffffffffffffffffffffffffffffffffffffff161415612bf457612bef81613522565b612c33565b8273ffffffffffffffffffffffffffffffffffffffff168273ffffffffffffffffffffffffffffffffffffffff1614612c3257612c318282613665565b5b5b505050565b60008083600101600084815260200190815260200160002054905060008114612db2576000600182612c6a91906146de565b9050600060018660000180549050612c8291906146de565b9050818114612d3d576000866000018281548110612cc9577f4e487b7100000000000000000000000000000000000000000000000000000000600052603260045260246000fd5b9060005260206000200154905080876000018481548110612d13577f4e487b7100000000000000000000000000000000000000000000000000000000600052603260045260246000fd5b90600052602060002001819055508387600101600083815260200190815260200160002081905550505b85600001805480612d77577f4e487b7100000000000000000000000000000000000000000000000000000000600052603160045260246000fd5b600190038181906000526020600020016000905590558560010160008681526020019081526020016000206000905560019350505050612db8565b60009150505b92915050565b6000612dc982611048565b9050612dd7816000846125fb565b612de26000836119a5565b6001600360008373ffffffffffffffffffffffffffffffffffffffff1673ffffffffffffffffffffffffffffffffffffffff1681526020019081526020016000206000828254612e3291906146de565b925050819055506002600083815260200190815260200160002060006101000a81549073ffffffffffffffffffffffffffffffffffffffff021916905581600073ffffffffffffffffffffffffffffffffffffffff168273ffffffffffffffffffffffffffffffffffffffff167fddf252ad1be2c89b69c2b068fc378daa952ba7f163c4a11628f55a4df523b3ef60405160405180910390a4612ed78160008461260b565b5050565b600073ffffffffffffffffffffffffffffffffffffffff168273ffffffffffffffffffffffffffffffffffffffff161415612f4b576040517f08c379a0000000000000000000000000000000000000000000000000000000008152600401612f42906143ed565b60405180910390fd5b612f5481611939565b15612f94576040517f08c379a0000000000000000000000000000000000000000000000000000000008152600401612f8b906142ed565b60405180910390fd5b612fa0600083836125fb565b6001600360008473ffffffffffffffffffffffffffffffffffffffff1673ffffffffffffffffffffffffffffffffffffffff1681526020019081526020016000206000828254612ff091906145fd565b92505081905550816002600083815260200190815260200160002060006101000a81548173ffffffffffffffffffffffffffffffffffffffff021916908373ffffffffffffffffffffffffffffffffffffffff160217905550808273ffffffffffffffffffffffffffffffffffffffff16600073ffffffffffffffffffffffffffffffffffffffff167fddf252ad1be2c89b69c2b068fc378daa952ba7f163c4a11628f55a4df523b3ef60405160405180910390a46130b16000838361260b565b5050565b6000808273ffffffffffffffffffffffffffffffffffffffff163b119050919050565b60606000821415613120576040518060400160405280600181526020017f30000000000000000000000000000000000000000000000000000000000000008152509050613280565b600082905060005b6000821461315257808061313b9061485f565b915050600a8261314b9190614653565b9150613128565b60008167ffffffffffffffff811115613194577f4e487b7100000000000000000000000000000000000000000000000000000000600052604160045260246000fd5b6040519080825280601f01601f1916602001820160405280156131c65781602001600182028036833780820191505090505b5090505b60008514613279576001826131df91906146de565b9150600a856131ee91906148a8565b60306131fa91906145fd565b60f81b818381518110613236577f4e487b7100000000000000000000000000000000000000000000000000000000600052603260045260246000fd5b60200101907effffffffffffffffffffffffffffffffffffffffffffffffffffffffffffff1916908160001a905350600a856132729190614653565b94506131ca565b8093505050505b919050565b60007f80ac58cd000000000000000000000000000000000000000000000000000000007bffffffffffffffffffffffffffffffffffffffffffffffffffffffff1916827bffffffffffffffffffffffffffffffffffffffffffffffffffffffff1916148061335057507f5b5e139f000000000000000000000000000000000000000000000000000000007bffffffffffffffffffffffffffffffffffffffffffffffffffffffff1916827bffffffffffffffffffffffffffffffffffffffffffffffffffffffff1916145b80613360575061335f826136e4565b5b9050919050565b505050565b6008805490506009600083815260200190815260200160002081905550600881908060018154018082558091505060019003906000526020600020016000909190919091505550565b600060016133c28461114f565b6133cc91906146de565b90506000600760008481526020019081526020016000205490508181146134b1576000600660008673ffffffffffffffffffffffffffffffffffffffff1673ffffffffffffffffffffffffffffffffffffffff168152602001908152602001600020600084815260200190815260200160002054905080600660008773ffffffffffffffffffffffffffffffffffffffff1673ffffffffffffffffffffffffffffffffffffffff168152602001908152602001600020600084815260200190815260200160002081905550816007600083815260200190815260200160002081905550505b6007600084815260200190815260200160002060009055600660008573ffffffffffffffffffffffffffffffffffffffff1673ffffffffffffffffffffffffffffffffffffffff16815260200190815260200160002060008381526020019081526020016000206000905550505050565b6000600160088054905061353691906146de565b905060006009600084815260200190815260200160002054905060006008838154811061358c577f4e487b7100000000000000000000000000000000000000000000000000000000600052603260045260246000fd5b9060005260206000200154905080600883815481106135d4577f4e487b7100000000000000000000000000000000000000000000000000000000600052603260045260246000fd5b906000526020600020018190555081600960008381526020019081526020016000208190555060096000858152602001908152602001600020600090556008805480613649577f4e487b7100000000000000000000000000000000000000000000000000000000600052603160045260246000fd5b6001900381819060005260206000200160009055905550505050565b60006136708361114f565b905081600660008573ffffffffffffffffffffffffffffffffffffffff1673ffffffffffffffffffffffffffffffffffffffff168152602001908152602001600020600083815260200190815260200160002081905550806007600084815260200190815260200160002081905550505050565b60007f01ffc9a7000000000000000000000000000000000000000000000000000000007bffffffffffffffffffffffffffffffffffffffffffffffffffffffff1916827bffffffffffffffffffffffffffffffffffffffffffffffffffffffff1916149050919050565b82805461375a906147fc565b90600052602060002090601f01602090048101928261377c57600085556137c3565b82601f1061379557805160ff19168380011785556137c3565b828001600101855582156137c3579182015b828111156137c25782518255916020019190600101906137a7565b5b5090506137d09190613814565b5090565b5080546137e0906147fc565b6000825580601f106137f25750613811565b601f0160209004906000526020600020908101906138109190613814565b5b50565b5b8082111561382d576000816000905550600101613815565b5090565b600061384461383f8461454d565b614528565b90508281526020810184848401111561385c57600080fd5b613867848285614790565b509392505050565b600061388261387d8461457e565b614528565b90508281526020810184848401111561389a57600080fd5b6138a5848285614790565b509392505050565b6000813590506138bc81614fde565b92915050565b6000813590506138d181614ff5565b92915050565b6000813590506138e68161500c565b92915050565b6000813590506138fb81615023565b92915050565b60008151905061391081615023565b92915050565b600082601f83011261392757600080fd5b8135613937848260208601613831565b91505092915050565b600082601f83011261395157600080fd5b813561396184826020860161386f565b91505092915050565b6000813590506139798161503a565b92915050565b60006020828403121561399157600080fd5b600061399f848285016138ad565b91505092915050565b600080604083850312156139bb57600080fd5b60006139c9858286016138ad565b92505060206139da858286016138ad565b9150509250929050565b6000806000606084860312156139f957600080fd5b6000613a07868287016138ad565b9350506020613a18868287016138ad565b9250506040613a298682870161396a565b9150509250925092565b60008060008060808587031215613a4957600080fd5b6000613a57878288016138ad565b9450506020613a68878288016138ad565b9350506040613a798782880161396a565b925050606085013567ffffffffffffffff811115613a9657600080fd5b613aa287828801613916565b91505092959194509250565b60008060408385031215613ac157600080fd5b6000613acf858286016138ad565b9250506020613ae0858286016138c2565b9150509250929050565b600080600060608486031215613aff57600080fd5b6000613b0d868287016138ad565b935050602084013567ffffffffffffffff811115613b2a57600080fd5b613b3686828701613940565b9250506040613b47868287016138d7565b9150509250925092565b60008060408385031215613b6457600080fd5b6000613b72858286016138ad565b9250506020613b838582860161396a565b9150509250929050565b600060208284031215613b9f57600080fd5b6000613bad848285016138d7565b91505092915050565b60008060408385031215613bc957600080fd5b6000613bd7858286016138d7565b9250506020613be8858286016138ad565b9150509250929050565b60008060408385031215613c0557600080fd5b6000613c13858286016138d7565b9250506020613c248582860161396a565b9150509250929050565b600060208284031215613c4057600080fd5b6000613c4e848285016138ec565b91505092915050565b600060208284031215613c6957600080fd5b6000613c7784828501613901565b91505092915050565b600060208284031215613c9257600080fd5b6000613ca08482850161396a565b91505092915050565b60008060408385031215613cbc57600080fd5b6000613cca8582860161396a565b925050602083013567ffffffffffffffff811115613ce757600080fd5b613cf385828601613940565b9150509250929050565b613d0681614712565b82525050565b613d1581614724565b82525050565b613d2481614730565b82525050565b6000613d35826145af565b613d3f81856145c5565b9350613d4f81856020860161479f565b613d5881614995565b840191505092915050565b6000613d6e826145ba565b613d7881856145e1565b9350613d8881856020860161479f565b613d9181614995565b840191505092915050565b6000613da7826145ba565b613db181856145f2565b9350613dc181856020860161479f565b80840191505092915050565b6000613dda6020836145e1565b9150613de5826149a6565b602082019050919050565b6000613dfd602b836145e1565b9150613e08826149cf565b604082019050919050565b6000613e206032836145e1565b9150613e2b82614a1e565b604082019050919050565b6000613e436025836145e1565b9150613e4e82614a6d565b604082019050919050565b6000613e66601c836145e1565b9150613e7182614abc565b602082019050919050565b6000613e896024836145e1565b9150613e9482614ae5565b604082019050919050565b6000613eac6019836145e1565b9150613eb782614b34565b602082019050919050565b6000613ecf602c836145e1565b9150613eda82614b5d565b604082019050919050565b6000613ef26038836145e1565b9150613efd82614bac565b604082019050919050565b6000613f15602a836145e1565b9150613f2082614bfb565b604082019050919050565b6000613f386029836145e1565b9150613f4382614c4a565b604082019050919050565b6000613f5b602e836145e1565b9150613f6682614c99565b604082019050919050565b6000613f7e6020836145e1565b9150613f8982614ce8565b602082019050919050565b6000613fa16031836145e1565b9150613fac82614d11565b604082019050919050565b6000613fc4602c836145e1565b9150613fcf82614d60565b604082019050919050565b6000613fe7602f836145e1565b9150613ff282614daf565b604082019050919050565b600061400a6021836145e1565b915061401582614dfe565b604082019050919050565b600061402d6000836145d6565b915061403882614e4d565b600082019050919050565b60006140506031836145e1565b915061405b82614e50565b604082019050919050565b6000614073602c836145e1565b915061407e82614e9f565b604082019050919050565b60006140966017836145f2565b91506140a182614eee565b601782019050919050565b60006140b96030836145e1565b91506140c482614f17565b604082019050919050565b60006140dc6011836145f2565b91506140e782614f66565b601182019050919050565b60006140ff602f836145e1565b915061410a82614f8f565b604082019050919050565b61411e81614786565b82525050565b60006141308284613d9c565b915081905092915050565b60006141478285613d9c565b91506141538284613d9c565b91508190509392505050565b600061416a82614020565b9150819050919050565b600061417f82614089565b915061418b8285613d9c565b9150614196826140cf565b91506141a28284613d9c565b91508190509392505050565b60006020820190506141c36000830184613cfd565b92915050565b60006080820190506141de6000830187613cfd565b6141eb6020830186613cfd565b6141f86040830185614115565b818103606083015261420a8184613d2a565b905095945050505050565b600060208201905061422a6000830184613d0c565b92915050565b60006020820190506142456000830184613d1b565b92915050565b600060208201905081810360008301526142658184613d63565b905092915050565b6000602082019050818103600083015261428681613dcd565b9050919050565b600060208201905081810360008301526142a681613df0565b9050919050565b600060208201905081810360008301526142c681613e13565b9050919050565b600060208201905081810360008301526142e681613e36565b9050919050565b6000602082019050818103600083015261430681613e59565b9050919050565b6000602082019050818103600083015261432681613e7c565b9050919050565b6000602082019050818103600083015261434681613e9f565b9050919050565b6000602082019050818103600083015261436681613ec2565b9050919050565b6000602082019050818103600083015261438681613ee5565b9050919050565b600060208201905081810360008301526143a681613f08565b9050919050565b600060208201905081810360008301526143c681613f2b565b9050919050565b600060208201905081810360008301526143e681613f4e565b9050919050565b6000602082019050818103600083015261440681613f71565b9050919050565b6000602082019050818103600083015261442681613f94565b9050919050565b6000602082019050818103600083015261444681613fb7565b9050919050565b6000602082019050818103600083015261446681613fda565b9050919050565b6000602082019050818103600083015261448681613ffd565b9050919050565b600060208201905081810360008301526144a681614043565b9050919050565b600060208201905081810360008301526144c681614066565b9050919050565b600060208201905081810360008301526144e6816140ac565b9050919050565b60006020820190508181036000830152614506816140f2565b9050919050565b60006020820190506145226000830184614115565b92915050565b6000614532614543565b905061453e828261482e565b919050565b6000604051905090565b600067ffffffffffffffff82111561456857614567614966565b5b61457182614995565b9050602081019050919050565b600067ffffffffffffffff82111561459957614598614966565b5b6145a282614995565b9050602081019050919050565b600081519050919050565b600081519050919050565b600082825260208201905092915050565b600081905092915050565b600082825260208201905092915050565b600081905092915050565b600061460882614786565b915061461383614786565b9250827fffffffffffffffffffffffffffffffffffffffffffffffffffffffffffffffff03821115614648576146476148d9565b5b828201905092915050565b600061465e82614786565b915061466983614786565b92508261467957614678614908565b5b828204905092915050565b600061468f82614786565b915061469a83614786565b9250817fffffffffffffffffffffffffffffffffffffffffffffffffffffffffffffffff04831182151516156146d3576146d26148d9565b5b828202905092915050565b60006146e982614786565b91506146f483614786565b925082821015614707576147066148d9565b5b828203905092915050565b600061471d82614766565b9050919050565b60008115159050919050565b6000819050919050565b60007fffffffff0000000000000000000000000000000000000000000000000000000082169050919050565b600073ffffffffffffffffffffffffffffffffffffffff82169050919050565b6000819050919050565b82818337600083830152505050565b60005b838110156147bd5780820151818401526020810190506147a2565b838111156147cc576000848401525b50505050565b60006147dd82614786565b915060008214156147f1576147f06148d9565b5b600182039050919050565b6000600282049050600182168061481457607f821691505b6020821081141561482857614827614937565b5b50919050565b61483782614995565b810181811067ffffffffffffffff8211171561485657614855614966565b5b80604052505050565b600061486a82614786565b91507fffffffffffffffffffffffffffffffffffffffffffffffffffffffffffffffff82141561489d5761489c6148d9565b5b600182019050919050565b60006148b382614786565b91506148be83614786565b9250826148ce576148cd614908565b5b828206905092915050565b7f4e487b7100000000000000000000000000000000000000000000000000000000600052601160045260246000fd5b7f4e487b7100000000000000000000000000000000000000000000000000000000600052601260045260246000fd5b7f4e487b7100000000000000000000000000000000000000000000000000000000600052602260045260246000fd5b7f4e487b7100000000000000000000000000000000000000000000000000000000600052604160045260246000fd5b6000601f19601f8301169050919050565b7f537472696e67733a20686578206c656e67746820696e73756666696369656e74600082015250565b7f455243373231456e756d657261626c653a206f776e657220696e646578206f7560008201527f74206f6620626f756e6473000000000000000000000000000000000000000000602082015250565b7f4552433732313a207472616e7366657220746f206e6f6e20455243373231526560008201527f63656976657220696d706c656d656e7465720000000000000000000000000000602082015250565b7f4552433732313a207472616e736665722066726f6d20696e636f72726563742060008201527f6f776e6572000000000000000000000000000000000000000000000000000000602082015250565b7f4552433732313a20746f6b656e20616c7265616479206d696e74656400000000600082015250565b7f4552433732313a207472616e7366657220746f20746865207a65726f2061646460008201527f7265737300000000000000000000000000000000000000000000000000000000602082015250565b7f4552433732313a20617070726f766520746f2063616c6c657200000000000000600082015250565b7f4552433732313a206f70657261746f7220717565727920666f72206e6f6e657860008201527f697374656e7420746f6b656e0000000000000000000000000000000000000000602082015250565b7f4552433732313a20617070726f76652063616c6c6572206973206e6f74206f7760008201527f6e6572206e6f7220617070726f76656420666f7220616c6c0000000000000000602082015250565b7f4552433732313a2062616c616e636520717565727920666f7220746865207a6560008201527f726f206164647265737300000000000000000000000000000000000000000000602082015250565b7f4552433732313a206f776e657220717565727920666f72206e6f6e657869737460008201527f656e7420746f6b656e0000000000000000000000000000000000000000000000602082015250565b7f45524337323155524953746f726167653a2055524920736574206f66206e6f6e60008201527f6578697374656e7420746f6b656e000000000000000000000000000000000000602082015250565b7f4552433732313a206d696e7420746f20746865207a65726f2061646472657373600082015250565b7f45524337323155524953746f726167653a2055524920717565727920666f722060008201527f6e6f6e6578697374656e7420746f6b656e000000000000000000000000000000602082015250565b7f4552433732313a20617070726f76656420717565727920666f72206e6f6e657860008201527f697374656e7420746f6b656e0000000000000000000000000000000000000000602082015250565b7f4552433732314d657461646174613a2055524920717565727920666f72206e6f60008201527f6e6578697374656e7420746f6b656e0000000000000000000000000000000000602082015250565b7f4552433732313a20617070726f76616c20746f2063757272656e74206f776e6560008201527f7200000000000000000000000000000000000000000000000000000000000000602082015250565b50565b7f4552433732313a207472616e736665722063616c6c6572206973206e6f74206f60008201527f776e6572206e6f7220617070726f766564000000000000000000000000000000602082015250565b7f455243373231456e756d657261626c653a20676c6f62616c20696e646578206f60008201527f7574206f6620626f756e64730000000000000000000000000000000000000000602082015250565b7f416363657373436f6e74726f6c3a206163636f756e7420000000000000000000600082015250565b7f4552433732314275726e61626c653a2063616c6c6572206973206e6f74206f7760008201527f6e6572206e6f7220617070726f76656400000000000000000000000000000000602082015250565b7f206973206d697373696e6720726f6c6520000000000000000000000000000000600082015250565b7f416363657373436f6e74726f6c3a2063616e206f6e6c792072656e6f756e636560008201527f20726f6c657320666f722073656c660000000000000000000000000000000000602082015250565b614fe781614712565b8114614ff257600080fd5b50565b614ffe81614724565b811461500957600080fd5b50565b61501581614730565b811461502057600080fd5b50565b61502c8161473a565b811461503757600080fd5b50565b61504381614786565b811461504e57600080fd5b5056fea2646970667358221220fee683164c7cf6f6cc8c314f7b23b72f8564530e08e1752f106fef64e3c3b60464736f6c63430008040033",
  "linkReferences": {},
  "deployedLinkReferences": {}
}