{
  "_format": "hh-sol-artifact-1",
  "contractName": "UserToken",
  "sourceName": "contracts/UserToken.sol",
  "abi": [
    {
      "inputs": [],
      "stateMutability": "nonpayable",
      "type": "constructor"
    },
    {
      "anonymous": false,
      "inputs": [
        {
          "indexed": true,
          "internalType": "address",
          "name": "owner",
          "type": "address"
        },
        {
          "indexed": true,
          "internalType": "address",
          "name": "approved",
          "type": "address"
        },
        {
          "indexed": true,
          "internalType": "uint256",
          "name": "tokenId",
          "type": "uint256"
        }
      ],
      "name": "Approval",
      "type": "event"
    },
    {
      "anonymous": false,
      "inputs": [
        {
          "indexed": true,
          "internalType": "address",
          "name": "owner",
          "type": "address"
        },
        {
          "indexed": true,
          "internalType": "address",
          "name": "operator",
          "type": "address"
        },
        {
          "indexed": false,
          "internalType": "bool",
          "name": "approved",
          "type": "bool"
        }
      ],
      "name": "ApprovalForAll",
      "type": "event"
    },
    {
      "anonymous": false,
      "inputs": [
        {
          "indexed": true,
          "internalType": "bytes32",
          "name": "role",
          "type": "bytes32"
        },
        {
          "indexed": true,
          "internalType": "bytes32",
          "name": "previousAdminRole",
          "type": "bytes32"
        },
        {
          "indexed": true,
          "internalType": "bytes32",
          "name": "newAdminRole",
          "type": "bytes32"
        }
      ],
      "name": "RoleAdminChanged",
      "type": "event"
    },
    {
      "anonymous": false,
      "inputs": [
        {
          "indexed": true,
          "internalType": "bytes32",
          "name": "role",
          "type": "bytes32"
        },
        {
          "indexed": true,
          "internalType": "address",
          "name": "account",
          "type": "address"
        },
        {
          "indexed": true,
          "internalType": "address",
          "name": "sender",
          "type": "address"
        }
      ],
      "name": "RoleGranted",
      "type": "event"
    },
    {
      "anonymous": false,
      "inputs": [
        {
          "indexed": true,
          "internalType": "bytes32",
          "name": "role",
          "type": "bytes32"
        },
        {
          "indexed": true,
          "internalType": "address",
          "name": "account",
          "type": "address"
        },
        {
          "indexed": true,
          "internalType": "address",
          "name": "sender",
          "type": "address"
        }
      ],
      "name": "RoleRevoked",
      "type": "event"
    },
    {
      "anonymous": false,
      "inputs": [
        {
          "indexed": true,
          "internalType": "address",
          "name": "from",
          "type": "address"
        },
        {
          "indexed": true,
          "internalType": "address",
          "name": "to",
          "type": "address"
        },
        {
          "indexed": true,
          "internalType": "uint256",
          "name": "tokenId",
          "type": "uint256"
        }
      ],
      "name": "Transfer",
      "type": "event"
    },
    {
      "inputs": [],
      "name": "DEFAULT_ADMIN_ROLE",
      "outputs": [
        {
          "internalType": "bytes32",
          "name": "",
          "type": "bytes32"
        }
      ],
      "stateMutability": "view",
      "type": "function"
    },
    {
      "inputs": [],
      "name": "MINTER_ROLE",
      "outputs": [
        {
          "internalType": "bytes32",
          "name": "",
          "type": "bytes32"
        }
      ],
      "stateMutability": "view",
      "type": "function"
    },
    {
      "inputs": [
        {
          "internalType": "address",
          "name": "to",
          "type": "address"
        },
        {
          "internalType": "uint256",
          "name": "tokenId",
          "type": "uint256"
        }
      ],
      "name": "approve",
      "outputs": [],
      "stateMutability": "nonpayable",
      "type": "function"
    },
    {
      "inputs": [
        {
          "internalType": "address",
          "name": "owner",
          "type": "address"
        }
      ],
      "name": "balanceOf",
      "outputs": [
        {
          "internalType": "uint256",
          "name": "",
          "type": "uint256"
        }
      ],
      "stateMutability": "view",
      "type": "function"
    },
    {
      "inputs": [
        {
          "internalType": "uint256",
          "name": "tokenId",
          "type": "uint256"
        }
      ],
      "name": "burn",
      "outputs": [],
      "stateMutability": "nonpayable",
      "type": "function"
    },
    {
      "inputs": [
        {
          "internalType": "uint256",
          "name": "tokenId",
          "type": "uint256"
        }
      ],
      "name": "getApproved",
      "outputs": [
        {
          "internalType": "address",
          "name": "",
          "type": "address"
        }
      ],
      "stateMutability": "view",
      "type": "function"
    },
    {
      "inputs": [
        {
          "internalType": "bytes32",
          "name": "role",
          "type": "bytes32"
        }
      ],
      "name": "getRoleAdmin",
      "outputs": [
        {
          "internalType": "bytes32",
          "name": "",
          "type": "bytes32"
        }
      ],
      "stateMutability": "view",
      "type": "function"
    },
    {
      "inputs": [
        {
          "internalType": "bytes32",
          "name": "role",
          "type": "bytes32"
        },
        {
          "internalType": "uint256",
          "name": "index",
          "type": "uint256"
        }
      ],
      "name": "getRoleMember",
      "outputs": [
        {
          "internalType": "address",
          "name": "",
          "type": "address"
        }
      ],
      "stateMutability": "view",
      "type": "function"
    },
    {
      "inputs": [
        {
          "internalType": "bytes32",
          "name": "role",
          "type": "bytes32"
        }
      ],
      "name": "getRoleMemberCount",
      "outputs": [
        {
          "internalType": "uint256",
          "name": "",
          "type": "uint256"
        }
      ],
      "stateMutability": "view",
      "type": "function"
    },
    {
      "inputs": [
        {
          "internalType": "bytes32",
          "name": "role",
          "type": "bytes32"
        },
        {
          "internalType": "address",
          "name": "account",
          "type": "address"
        }
      ],
      "name": "grantRole",
      "outputs": [],
      "stateMutability": "nonpayable",
      "type": "function"
    },
    {
      "inputs": [
        {
          "internalType": "bytes32",
          "name": "role",
          "type": "bytes32"
        },
        {
          "internalType": "address",
          "name": "account",
          "type": "address"
        }
      ],
      "name": "hasRole",
      "outputs": [
        {
          "internalType": "bool",
          "name": "",
          "type": "bool"
        }
      ],
      "stateMutability": "view",
      "type": "function"
    },
    {
      "inputs": [
        {
          "internalType": "address",
          "name": "owner",
          "type": "address"
        },
        {
          "internalType": "address",
          "name": "operator",
          "type": "address"
        }
      ],
      "name": "isApprovedForAll",
      "outputs": [
        {
          "internalType": "bool",
          "name": "",
          "type": "bool"
        }
      ],
      "stateMutability": "view",
      "type": "function"
    },
    {
      "inputs": [],
      "name": "name",
      "outputs": [
        {
          "internalType": "string",
          "name": "",
          "type": "string"
        }
      ],
      "stateMutability": "view",
      "type": "function"
    },
    {
      "inputs": [
        {
          "internalType": "uint256",
          "name": "tokenId",
          "type": "uint256"
        }
      ],
      "name": "ownerOf",
      "outputs": [
        {
          "internalType": "address",
          "name": "",
          "type": "address"
        }
      ],
      "stateMutability": "view",
      "type": "function"
    },
    {
      "inputs": [
        {
          "internalType": "bytes32",
          "name": "role",
          "type": "bytes32"
        },
        {
          "internalType": "address",
          "name": "account",
          "type": "address"
        }
      ],
      "name": "renounceRole",
      "outputs": [],
      "stateMutability": "nonpayable",
      "type": "function"
    },
    {
      "inputs": [
        {
          "internalType": "bytes32",
          "name": "role",
          "type": "bytes32"
        },
        {
          "internalType": "address",
          "name": "account",
          "type": "address"
        }
      ],
      "name": "revokeRole",
      "outputs": [],
      "stateMutability": "nonpayable",
      "type": "function"
    },
    {
      "inputs": [
        {
          "internalType": "address",
          "name": "to",
          "type": "address"
        },
        {
          "internalType": "string",
          "name": "uri",
          "type": "string"
        }
      ],
      "name": "safeMint",
      "outputs": [],
      "stateMutability": "nonpayable",
      "type": "function"
    },
    {
      "inputs": [
        {
          "internalType": "address",
          "name": "from",
          "type": "address"
        },
        {
          "internalType": "address",
          "name": "to",
          "type": "address"
        },
        {
          "internalType": "uint256",
          "name": "tokenId",
          "type": "uint256"
        }
      ],
      "name": "safeTransferFrom",
      "outputs": [],
      "stateMutability": "nonpayable",
      "type": "function"
    },
    {
      "inputs": [
        {
          "internalType": "address",
          "name": "from",
          "type": "address"
        },
        {
          "internalType": "address",
          "name": "to",
          "type": "address"
        },
        {
          "internalType": "uint256",
          "name": "tokenId",
          "type": "uint256"
        },
        {
          "internalType": "bytes",
          "name": "_data",
          "type": "bytes"
        }
      ],
      "name": "safeTransferFrom",
      "outputs": [],
      "stateMutability": "nonpayable",
      "type": "function"
    },
    {
      "inputs": [
        {
          "internalType": "address",
          "name": "operator",
          "type": "address"
        },
        {
          "internalType": "bool",
          "name": "approved",
          "type": "bool"
        }
      ],
      "name": "setApprovalForAll",
      "outputs": [],
      "stateMutability": "nonpayable",
      "type": "function"
    },
    {
      "inputs": [
        {
          "internalType": "bytes4",
          "name": "interfaceId",
          "type": "bytes4"
        }
      ],
      "name": "supportsInterface",
      "outputs": [
        {
          "internalType": "bool",
          "name": "",
          "type": "bool"
        }
      ],
      "stateMutability": "view",
      "type": "function"
    },
    {
      "inputs": [],
      "name": "symbol",
      "outputs": [
        {
          "internalType": "string",
          "name": "",
          "type": "string"
        }
      ],
      "stateMutability": "view",
      "type": "function"
    },
    {
      "inputs": [
        {
          "internalType": "uint256",
          "name": "index",
          "type": "uint256"
        }
      ],
      "name": "tokenByIndex",
      "outputs": [
        {
          "internalType": "uint256",
          "name": "",
          "type": "uint256"
        }
      ],
      "stateMutability": "view",
      "type": "function"
    },
    {
      "inputs": [
        {
          "internalType": "address",
          "name": "owner",
          "type": "address"
        },
        {
          "internalType": "uint256",
          "name": "index",
          "type": "uint256"
        }
      ],
      "name": "tokenOfOwnerByIndex",
      "outputs": [
        {
          "internalType": "uint256",
          "name": "",
          "type": "uint256"
        }
      ],
      "stateMutability": "view",
      "type": "function"
    },
    {
      "inputs": [
        {
          "internalType": "uint256",
          "name": "tokenId",
          "type": "uint256"
        }
      ],
      "name": "tokenURI",
      "outputs": [
        {
          "internalType": "string",
          "name": "",
          "type": "string"
        }
      ],
      "stateMutability": "view",
      "type": "function"
    },
    {
      "inputs": [],
      "name": "totalSupply",
      "outputs": [
        {
          "internalType": "uint256",
          "name": "",
          "type": "uint256"
        }
      ],
      "stateMutability": "view",
      "type": "function"
    },
    {
      "inputs": [
        {
          "internalType": "address",
          "name": "from",
          "type": "address"
        },
        {
          "internalType": "address",
          "name": "to",
          "type": "address"
        },
        {
          "internalType": "uint256",
          "name": "tokenId",
          "type": "uint256"
        }
      ],
      "name": "transferFrom",
      "outputs": [],
      "stateMutability": "nonpayable",
      "type": "function"
    }
  ],
  "bytecode": "0x60806040523480156200001157600080fd5b506040518060400160405280600981526020017f55736572546f6b656e00000000000000000000000000000000000000000000008152506040518060400160405280600381526020017f55544b000000000000000000000000000000000000000000000000000000000081525081600090805190602001906200009692919062000381565b508060019080519060200190620000af92919062000381565b505050620000c76000801b33620000ff60201b60201c565b620000f97f9f2df0fed2c77648de5860a4cc508cd0818c85b8b8a1ab4ceeef8d981c8956a633620000ff60201b60201c565b62000496565b6200011682826200014760201b62000f5e1760201c565b6200014281600c60008581526020019081526020016000206200023960201b6200103f1790919060201c565b505050565b6200015982826200027160201b60201c565b62000235576001600b600084815260200190815260200160002060000160008373ffffffffffffffffffffffffffffffffffffffff1673ffffffffffffffffffffffffffffffffffffffff16815260200190815260200160002060006101000a81548160ff021916908315150217905550620001da620002dc60201b60201c565b73ffffffffffffffffffffffffffffffffffffffff168173ffffffffffffffffffffffffffffffffffffffff16837f2f8788117e7eff1d82e926ec794901d17c78024a50270940304540a733656f0d60405160405180910390a45b5050565b600062000269836000018373ffffffffffffffffffffffffffffffffffffffff1660001b620002e460201b60201c565b905092915050565b6000600b600084815260200190815260200160002060000160008373ffffffffffffffffffffffffffffffffffffffff1673ffffffffffffffffffffffffffffffffffffffff16815260200190815260200160002060009054906101000a900460ff16905092915050565b600033905090565b6000620002f883836200035e60201b60201c565b6200035357826000018290806001815401808255809150506001900390600052602060002001600090919091909150558260000180549050836001016000848152602001908152602001600020819055506001905062000358565b600090505b92915050565b600080836001016000848152602001908152602001600020541415905092915050565b8280546200038f9062000431565b90600052602060002090601f016020900481019282620003b35760008555620003ff565b82601f10620003ce57805160ff1916838001178555620003ff565b82800160010185558215620003ff579182015b82811115620003fe578251825591602001919060010190620003e1565b5b5090506200040e919062000412565b5090565b5b808211156200042d57600081600090555060010162000413565b5090565b600060028204905060018216806200044a57607f821691505b6020821081141562000461576200046062000467565b5b50919050565b7f4e487b7100000000000000000000000000000000000000000000000000000000600052602260045260246000fd5b61481880620004a66000396000f3fe608060405234801561001057600080fd5b50600436106101a95760003560e01c80636352211e116100f9578063b88d4fde11610097578063d204c45e11610071578063d204c45e14610516578063d539139314610532578063d547741f14610550578063e985e9c51461056c576101a9565b8063b88d4fde1461049a578063c87b56dd146104b6578063ca15c873146104e6576101a9565b806391d14854116100d357806391d148541461041257806395d89b4114610442578063a217fddf14610460578063a22cb4651461047e576101a9565b80636352211e1461038257806370a08231146103b25780639010d07c146103e2576101a9565b8063248a9ca31161016657806336568abe1161014057806336568abe146102fe57806342842e0e1461031a57806342966c68146103365780634f6ccce714610352576101a9565b8063248a9ca3146102825780632f2ff15d146102b25780632f745c59146102ce576101a9565b806301ffc9a7146101ae57806306fdde03146101de578063081812fc146101fc578063095ea7b31461022c57806318160ddd1461024857806323b872dd14610266575b600080fd5b6101c860048036038101906101c39190613470565b61059c565b6040516101d591906139b4565b60405180910390f35b6101e66105ae565b6040516101f391906139ea565b60405180910390f35b610216600480360381019061021191906134c2565b610640565b604051610223919061394d565b60405180910390f35b61024660048036038101906102419190613393565b6106c5565b005b6102506107dd565b60405161025d9190613cac565b60405180910390f35b610280600480360381019061027b9190613239565b6107ea565b005b61029c600480360381019061029791906133cf565b61084a565b6040516102a991906139cf565b60405180910390f35b6102cc60048036038101906102c791906133f8565b61086a565b005b6102e860048036038101906102e39190613393565b610893565b6040516102f59190613cac565b60405180910390f35b610318600480360381019061031391906133f8565b610938565b005b610334600480360381019061032f9190613239565b6109bb565b005b610350600480360381019061034b91906134c2565b6109db565b005b61036c600480360381019061036791906134c2565b610a37565b6040516103799190613cac565b60405180910390f35b61039c600480360381019061039791906134c2565b610ace565b6040516103a9919061394d565b60405180910390f35b6103cc60048036038101906103c791906131d4565b610b80565b6040516103d99190613cac565b60405180910390f35b6103fc60048036038101906103f79190613434565b610c38565b604051610409919061394d565b60405180910390f35b61042c600480360381019061042791906133f8565b610c67565b60405161043991906139b4565b60405180910390f35b61044a610cd2565b60405161045791906139ea565b60405180910390f35b610468610d64565b60405161047591906139cf565b60405180910390f35b61049860048036038101906104939190613303565b610d6b565b005b6104b460048036038101906104af9190613288565b610d81565b005b6104d060048036038101906104cb91906134c2565b610de3565b6040516104dd91906139ea565b60405180910390f35b61050060048036038101906104fb91906133cf565b610df5565b60405161050d9190613cac565b60405180910390f35b610530600480360381019061052b919061333f565b610e19565b005b61053a610e7d565b60405161054791906139cf565b60405180910390f35b61056a600480360381019061056591906133f8565b610ea1565b005b610586600480360381019061058191906131fd565b610eca565b60405161059391906139b4565b60405180910390f35b60006105a78261106f565b9050919050565b6060600080546105bd90613f90565b80601f01602080910402602001604051908101604052809291908181526020018280546105e990613f90565b80156106365780601f1061060b57610100808354040283529160200191610636565b820191906000526020600020905b81548152906001019060200180831161061957829003601f168201915b5050505050905090565b600061064b826110e9565b61068a576040517f08c379a000000000000000000000000000000000000000000000000000000000815260040161068190613bcc565b60405180910390fd5b6004600083815260200190815260200160002060009054906101000a900473ffffffffffffffffffffffffffffffffffffffff169050919050565b60006106d082610ace565b90508073ffffffffffffffffffffffffffffffffffffffff168373ffffffffffffffffffffffffffffffffffffffff161415610741576040517f08c379a000000000000000000000000000000000000000000000000000000000815260040161073890613c0c565b60405180910390fd5b8073ffffffffffffffffffffffffffffffffffffffff16610760611155565b73ffffffffffffffffffffffffffffffffffffffff16148061078f575061078e81610789611155565b610eca565b5b6107ce576040517f08c379a00000000000000000000000000000000000000000000000000000000081526004016107c590613b0c565b60405180910390fd5b6107d8838361115d565b505050565b6000600880549050905090565b6107fb6107f5611155565b82611216565b61083a576040517f08c379a000000000000000000000000000000000000000000000000000000000815260040161083190613c2c565b60405180910390fd5b6108458383836112f4565b505050565b6000600b6000838152602001908152602001600020600101549050919050565b6108738261084a565b6108848161087f611155565b61155b565b61088e83836115f8565b505050565b600061089e83610b80565b82106108df576040517f08c379a00000000000000000000000000000000000000000000000000000000081526004016108d690613a2c565b60405180910390fd5b600660008473ffffffffffffffffffffffffffffffffffffffff1673ffffffffffffffffffffffffffffffffffffffff168152602001908152602001600020600083815260200190815260200160002054905092915050565b610940611155565b73ffffffffffffffffffffffffffffffffffffffff168173ffffffffffffffffffffffffffffffffffffffff16146109ad576040517f08c379a00000000000000000000000000000000000000000000000000000000081526004016109a490613c8c565b60405180910390fd5b6109b7828261162c565b5050565b6109d683838360405180602001604052806000815250610d81565b505050565b6109ec6109e6611155565b82611216565b610a2b576040517f08c379a0000000000000000000000000000000000000000000000000000000008152600401610a2290613c6c565b60405180910390fd5b610a3481611660565b50565b6000610a416107dd565b8210610a82576040517f08c379a0000000000000000000000000000000000000000000000000000000008152600401610a7990613c4c565b60405180910390fd5b60088281548110610abc577f4e487b7100000000000000000000000000000000000000000000000000000000600052603260045260246000fd5b90600052602060002001549050919050565b6000806002600084815260200190815260200160002060009054906101000a900473ffffffffffffffffffffffffffffffffffffffff169050600073ffffffffffffffffffffffffffffffffffffffff168173ffffffffffffffffffffffffffffffffffffffff161415610b77576040517f08c379a0000000000000000000000000000000000000000000000000000000008152600401610b6e90613b4c565b60405180910390fd5b80915050919050565b60008073ffffffffffffffffffffffffffffffffffffffff168273ffffffffffffffffffffffffffffffffffffffff161415610bf1576040517f08c379a0000000000000000000000000000000000000000000000000000000008152600401610be890613b2c565b60405180910390fd5b600360008373ffffffffffffffffffffffffffffffffffffffff1673ffffffffffffffffffffffffffffffffffffffff168152602001908152602001600020549050919050565b6000610c5f82600c600086815260200190815260200160002061166c90919063ffffffff16565b905092915050565b6000600b600084815260200190815260200160002060000160008373ffffffffffffffffffffffffffffffffffffffff1673ffffffffffffffffffffffffffffffffffffffff16815260200190815260200160002060009054906101000a900460ff16905092915050565b606060018054610ce190613f90565b80601f0160208091040260200160405190810160405280929190818152602001828054610d0d90613f90565b8015610d5a5780601f10610d2f57610100808354040283529160200191610d5a565b820191906000526020600020905b815481529060010190602001808311610d3d57829003601f168201915b5050505050905090565b6000801b81565b610d7d610d76611155565b8383611686565b5050565b610d92610d8c611155565b83611216565b610dd1576040517f08c379a0000000000000000000000000000000000000000000000000000000008152600401610dc890613c2c565b60405180910390fd5b610ddd848484846117f3565b50505050565b6060610dee8261184f565b9050919050565b6000610e12600c60008481526020019081526020016000206119a1565b9050919050565b7f9f2df0fed2c77648de5860a4cc508cd0818c85b8b8a1ab4ceeef8d981c8956a6610e4b81610e46611155565b61155b565b6000610e57600d6119b6565b9050610e63600d6119c4565b610e6d84826119da565b610e7781846119f8565b50505050565b7f9f2df0fed2c77648de5860a4cc508cd0818c85b8b8a1ab4ceeef8d981c8956a681565b610eaa8261084a565b610ebb81610eb6611155565b61155b565b610ec5838361162c565b505050565b6000600560008473ffffffffffffffffffffffffffffffffffffffff1673ffffffffffffffffffffffffffffffffffffffff16815260200190815260200160002060008373ffffffffffffffffffffffffffffffffffffffff1673ffffffffffffffffffffffffffffffffffffffff16815260200190815260200160002060009054906101000a900460ff16905092915050565b610f688282610c67565b61103b576001600b600084815260200190815260200160002060000160008373ffffffffffffffffffffffffffffffffffffffff1673ffffffffffffffffffffffffffffffffffffffff16815260200190815260200160002060006101000a81548160ff021916908315150217905550610fe0611155565b73ffffffffffffffffffffffffffffffffffffffff168173ffffffffffffffffffffffffffffffffffffffff16837f2f8788117e7eff1d82e926ec794901d17c78024a50270940304540a733656f0d60405160405180910390a45b5050565b6000611067836000018373ffffffffffffffffffffffffffffffffffffffff1660001b611a6c565b905092915050565b60007f5a05180f000000000000000000000000000000000000000000000000000000007bffffffffffffffffffffffffffffffffffffffffffffffffffffffff1916827bffffffffffffffffffffffffffffffffffffffffffffffffffffffff191614806110e257506110e182611adc565b5b9050919050565b60008073ffffffffffffffffffffffffffffffffffffffff166002600084815260200190815260200160002060009054906101000a900473ffffffffffffffffffffffffffffffffffffffff1673ffffffffffffffffffffffffffffffffffffffff1614159050919050565b600033905090565b816004600083815260200190815260200160002060006101000a81548173ffffffffffffffffffffffffffffffffffffffff021916908373ffffffffffffffffffffffffffffffffffffffff160217905550808273ffffffffffffffffffffffffffffffffffffffff166111d083610ace565b73ffffffffffffffffffffffffffffffffffffffff167f8c5be1e5ebec7d5bd14f71427d1e84f3dd0314c0f7b2291e5b200ac8c7c3b92560405160405180910390a45050565b6000611221826110e9565b611260576040517f08c379a000000000000000000000000000000000000000000000000000000000815260040161125790613aec565b60405180910390fd5b600061126b83610ace565b90508073ffffffffffffffffffffffffffffffffffffffff168473ffffffffffffffffffffffffffffffffffffffff1614806112da57508373ffffffffffffffffffffffffffffffffffffffff166112c284610640565b73ffffffffffffffffffffffffffffffffffffffff16145b806112eb57506112ea8185610eca565b5b91505092915050565b8273ffffffffffffffffffffffffffffffffffffffff1661131482610ace565b73ffffffffffffffffffffffffffffffffffffffff161461136a576040517f08c379a000000000000000000000000000000000000000000000000000000000815260040161136190613a6c565b60405180910390fd5b600073ffffffffffffffffffffffffffffffffffffffff168273ffffffffffffffffffffffffffffffffffffffff1614156113da576040517f08c379a00000000000000000000000000000000000000000000000000000000081526004016113d190613aac565b60405180910390fd5b6113e5838383611b56565b6113f060008261115d565b6001600360008573ffffffffffffffffffffffffffffffffffffffff1673ffffffffffffffffffffffffffffffffffffffff16815260200190815260200160002060008282546114409190613e72565b925050819055506001600360008473ffffffffffffffffffffffffffffffffffffffff1673ffffffffffffffffffffffffffffffffffffffff16815260200190815260200160002060008282546114979190613d91565b92505081905550816002600083815260200190815260200160002060006101000a81548173ffffffffffffffffffffffffffffffffffffffff021916908373ffffffffffffffffffffffffffffffffffffffff160217905550808273ffffffffffffffffffffffffffffffffffffffff168473ffffffffffffffffffffffffffffffffffffffff167fddf252ad1be2c89b69c2b068fc378daa952ba7f163c4a11628f55a4df523b3ef60405160405180910390a4611556838383611b66565b505050565b6115658282610c67565b6115f45761158a8173ffffffffffffffffffffffffffffffffffffffff166014611b6b565b6115988360001c6020611b6b565b6040516020016115a9929190613913565b6040516020818303038152906040526040517f08c379a00000000000000000000000000000000000000000000000000000000081526004016115eb91906139ea565b60405180910390fd5b5050565b6116028282610f5e565b61162781600c600085815260200190815260200160002061103f90919063ffffffff16565b505050565b6116368282611e65565b61165b81600c6000858152602001908152602001600020611f4790919063ffffffff16565b505050565b61166981611f77565b50565b600061167b8360000183611fca565b60001c905092915050565b8173ffffffffffffffffffffffffffffffffffffffff168373ffffffffffffffffffffffffffffffffffffffff1614156116f5576040517f08c379a00000000000000000000000000000000000000000000000000000000081526004016116ec90613acc565b60405180910390fd5b80600560008573ffffffffffffffffffffffffffffffffffffffff1673ffffffffffffffffffffffffffffffffffffffff16815260200190815260200160002060008473ffffffffffffffffffffffffffffffffffffffff1673ffffffffffffffffffffffffffffffffffffffff16815260200190815260200160002060006101000a81548160ff0219169083151502179055508173ffffffffffffffffffffffffffffffffffffffff168373ffffffffffffffffffffffffffffffffffffffff167f17307eab39ab6107e8899845ad3d59bd9653f200f220920489ca2b5937696c31836040516117e691906139b4565b60405180910390a3505050565b6117fe8484846112f4565b61180a8484848461201b565b611849576040517f08c379a000000000000000000000000000000000000000000000000000000000815260040161184090613a4c565b60405180910390fd5b50505050565b606061185a826110e9565b611899576040517f08c379a000000000000000000000000000000000000000000000000000000000815260040161189090613bac565b60405180910390fd5b6000600a600084815260200190815260200160002080546118b990613f90565b80601f01602080910402602001604051908101604052809291908181526020018280546118e590613f90565b80156119325780601f1061190757610100808354040283529160200191611932565b820191906000526020600020905b81548152906001019060200180831161191557829003601f168201915b5050505050905060006119436121b2565b905060008151141561195957819250505061199c565b60008251111561198e5780826040516020016119769291906138ef565b6040516020818303038152906040529250505061199c565b611997846121c9565b925050505b919050565b60006119af82600001612270565b9050919050565b600081600001549050919050565b6001816000016000828254019250508190555050565b6119f4828260405180602001604052806000815250612281565b5050565b611a01826110e9565b611a40576040517f08c379a0000000000000000000000000000000000000000000000000000000008152600401611a3790613b6c565b60405180910390fd5b80600a60008481526020019081526020016000209080519060200190611a67929190612fa3565b505050565b6000611a7883836122dc565b611ad1578260000182908060018154018082558091505060019003906000526020600020016000909190919091505582600001805490508360010160008481526020019081526020016000208190555060019050611ad6565b600090505b92915050565b60007f7965db0b000000000000000000000000000000000000000000000000000000007bffffffffffffffffffffffffffffffffffffffffffffffffffffffff1916827bffffffffffffffffffffffffffffffffffffffffffffffffffffffff19161480611b4f5750611b4e826122ff565b5b9050919050565b611b61838383612379565b505050565b505050565b606060006002836002611b7e9190613e18565b611b889190613d91565b67ffffffffffffffff811115611bc7577f4e487b7100000000000000000000000000000000000000000000000000000000600052604160045260246000fd5b6040519080825280601f01601f191660200182016040528015611bf95781602001600182028036833780820191505090505b5090507f300000000000000000000000000000000000000000000000000000000000000081600081518110611c57577f4e487b7100000000000000000000000000000000000000000000000000000000600052603260045260246000fd5b60200101907effffffffffffffffffffffffffffffffffffffffffffffffffffffffffffff1916908160001a9053507f780000000000000000000000000000000000000000000000000000000000000081600181518110611ce1577f4e487b7100000000000000000000000000000000000000000000000000000000600052603260045260246000fd5b60200101907effffffffffffffffffffffffffffffffffffffffffffffffffffffffffffff1916908160001a90535060006001846002611d219190613e18565b611d2b9190613d91565b90505b6001811115611e17577f3031323334353637383961626364656600000000000000000000000000000000600f861660108110611d93577f4e487b7100000000000000000000000000000000000000000000000000000000600052603260045260246000fd5b1a60f81b828281518110611dd0577f4e487b7100000000000000000000000000000000000000000000000000000000600052603260045260246000fd5b60200101907effffffffffffffffffffffffffffffffffffffffffffffffffffffffffffff1916908160001a905350600485901c945080611e1090613f66565b9050611d2e565b5060008414611e5b576040517f08c379a0000000000000000000000000000000000000000000000000000000008152600401611e5290613a0c565b60405180910390fd5b8091505092915050565b611e6f8282610c67565b15611f43576000600b600084815260200190815260200160002060000160008373ffffffffffffffffffffffffffffffffffffffff1673ffffffffffffffffffffffffffffffffffffffff16815260200190815260200160002060006101000a81548160ff021916908315150217905550611ee8611155565b73ffffffffffffffffffffffffffffffffffffffff168173ffffffffffffffffffffffffffffffffffffffff16837ff6391f5c32d9c69d2a47ea670b442974b53935d1edc7fd64eb21e047a839171b60405160405180910390a45b5050565b6000611f6f836000018373ffffffffffffffffffffffffffffffffffffffff1660001b61248d565b905092915050565b611f8081612613565b6000600a60008381526020019081526020016000208054611fa090613f90565b905014611fc757600a60008281526020019081526020016000206000611fc69190613029565b5b50565b6000826000018281548110612008577f4e487b7100000000000000000000000000000000000000000000000000000000600052603260045260246000fd5b9060005260206000200154905092915050565b600061203c8473ffffffffffffffffffffffffffffffffffffffff16612730565b156121a5578373ffffffffffffffffffffffffffffffffffffffff1663150b7a02612065611155565b8786866040518563ffffffff1660e01b81526004016120879493929190613968565b602060405180830381600087803b1580156120a157600080fd5b505af19250505080156120d257506040513d601f19601f820116820180604052508101906120cf9190613499565b60015b612155573d8060008114612102576040519150601f19603f3d011682016040523d82523d6000602084013e612107565b606091505b5060008151141561214d576040517f08c379a000000000000000000000000000000000000000000000000000000000815260040161214490613a4c565b60405180910390fd5b805181602001fd5b63150b7a0260e01b7bffffffffffffffffffffffffffffffffffffffffffffffffffffffff1916817bffffffffffffffffffffffffffffffffffffffffffffffffffffffff1916149150506121aa565b600190505b949350505050565b606060405180602001604052806000815250905090565b60606121d4826110e9565b612213576040517f08c379a000000000000000000000000000000000000000000000000000000000815260040161220a90613bec565b60405180910390fd5b600061221d6121b2565b9050600081511161223d5760405180602001604052806000815250612268565b8061224784612753565b6040516020016122589291906138ef565b6040516020818303038152906040525b915050919050565b600081600001805490509050919050565b61228b8383612900565b612298600084848461201b565b6122d7576040517f08c379a00000000000000000000000000000000000000000000000000000000081526004016122ce90613a4c565b60405180910390fd5b505050565b600080836001016000848152602001908152602001600020541415905092915050565b60007f780e9d63000000000000000000000000000000000000000000000000000000007bffffffffffffffffffffffffffffffffffffffffffffffffffffffff1916827bffffffffffffffffffffffffffffffffffffffffffffffffffffffff19161480612372575061237182612ada565b5b9050919050565b612384838383612bbc565b600073ffffffffffffffffffffffffffffffffffffffff168373ffffffffffffffffffffffffffffffffffffffff1614156123c7576123c281612bc1565b612406565b8173ffffffffffffffffffffffffffffffffffffffff168373ffffffffffffffffffffffffffffffffffffffff1614612405576124048382612c0a565b5b5b600073ffffffffffffffffffffffffffffffffffffffff168273ffffffffffffffffffffffffffffffffffffffff1614156124495761244481612d77565b612488565b8273ffffffffffffffffffffffffffffffffffffffff168273ffffffffffffffffffffffffffffffffffffffff1614612487576124868282612eba565b5b5b505050565b600080836001016000848152602001908152602001600020549050600081146126075760006001826124bf9190613e72565b90506000600186600001805490506124d79190613e72565b905081811461259257600086600001828154811061251e577f4e487b7100000000000000000000000000000000000000000000000000000000600052603260045260246000fd5b9060005260206000200154905080876000018481548110612568577f4e487b7100000000000000000000000000000000000000000000000000000000600052603260045260246000fd5b90600052602060002001819055508387600101600083815260200190815260200160002081905550505b856000018054806125cc577f4e487b7100000000000000000000000000000000000000000000000000000000600052603160045260246000fd5b60019003818190600052602060002001600090559055856001016000868152602001908152602001600020600090556001935050505061260d565b60009150505b92915050565b600061261e82610ace565b905061262c81600084611b56565b61263760008361115d565b6001600360008373ffffffffffffffffffffffffffffffffffffffff1673ffffffffffffffffffffffffffffffffffffffff16815260200190815260200160002060008282546126879190613e72565b925050819055506002600083815260200190815260200160002060006101000a81549073ffffffffffffffffffffffffffffffffffffffff021916905581600073ffffffffffffffffffffffffffffffffffffffff168273ffffffffffffffffffffffffffffffffffffffff167fddf252ad1be2c89b69c2b068fc378daa952ba7f163c4a11628f55a4df523b3ef60405160405180910390a461272c81600084611b66565b5050565b6000808273ffffffffffffffffffffffffffffffffffffffff163b119050919050565b6060600082141561279b576040518060400160405280600181526020017f300000000000000000000000000000000000000000000000000000000000000081525090506128fb565b600082905060005b600082146127cd5780806127b690613ff3565b915050600a826127c69190613de7565b91506127a3565b60008167ffffffffffffffff81111561280f577f4e487b7100000000000000000000000000000000000000000000000000000000600052604160045260246000fd5b6040519080825280601f01601f1916602001820160405280156128415781602001600182028036833780820191505090505b5090505b600085146128f45760018261285a9190613e72565b9150600a85612869919061403c565b60306128759190613d91565b60f81b8183815181106128b1577f4e487b7100000000000000000000000000000000000000000000000000000000600052603260045260246000fd5b60200101907effffffffffffffffffffffffffffffffffffffffffffffffffffffffffffff1916908160001a905350600a856128ed9190613de7565b9450612845565b8093505050505b919050565b600073ffffffffffffffffffffffffffffffffffffffff168273ffffffffffffffffffffffffffffffffffffffff161415612970576040517f08c379a000000000000000000000000000000000000000000000000000000000815260040161296790613b8c565b60405180910390fd5b612979816110e9565b156129b9576040517f08c379a00000000000000000000000000000000000000000000000000000000081526004016129b090613a8c565b60405180910390fd5b6129c560008383611b56565b6001600360008473ffffffffffffffffffffffffffffffffffffffff1673ffffffffffffffffffffffffffffffffffffffff1681526020019081526020016000206000828254612a159190613d91565b92505081905550816002600083815260200190815260200160002060006101000a81548173ffffffffffffffffffffffffffffffffffffffff021916908373ffffffffffffffffffffffffffffffffffffffff160217905550808273ffffffffffffffffffffffffffffffffffffffff16600073ffffffffffffffffffffffffffffffffffffffff167fddf252ad1be2c89b69c2b068fc378daa952ba7f163c4a11628f55a4df523b3ef60405160405180910390a4612ad660008383611b66565b5050565b60007f80ac58cd000000000000000000000000000000000000000000000000000000007bffffffffffffffffffffffffffffffffffffffffffffffffffffffff1916827bffffffffffffffffffffffffffffffffffffffffffffffffffffffff19161480612ba557507f5b5e139f000000000000000000000000000000000000000000000000000000007bffffffffffffffffffffffffffffffffffffffffffffffffffffffff1916827bffffffffffffffffffffffffffffffffffffffffffffffffffffffff1916145b80612bb55750612bb482612f39565b5b9050919050565b505050565b6008805490506009600083815260200190815260200160002081905550600881908060018154018082558091505060019003906000526020600020016000909190919091505550565b60006001612c1784610b80565b612c219190613e72565b9050600060076000848152602001908152602001600020549050818114612d06576000600660008673ffffffffffffffffffffffffffffffffffffffff1673ffffffffffffffffffffffffffffffffffffffff168152602001908152602001600020600084815260200190815260200160002054905080600660008773ffffffffffffffffffffffffffffffffffffffff1673ffffffffffffffffffffffffffffffffffffffff168152602001908152602001600020600084815260200190815260200160002081905550816007600083815260200190815260200160002081905550505b6007600084815260200190815260200160002060009055600660008573ffffffffffffffffffffffffffffffffffffffff1673ffffffffffffffffffffffffffffffffffffffff16815260200190815260200160002060008381526020019081526020016000206000905550505050565b60006001600880549050612d8b9190613e72565b9050600060096000848152602001908152602001600020549050600060088381548110612de1577f4e487b7100000000000000000000000000000000000000000000000000000000600052603260045260246000fd5b906000526020600020015490508060088381548110612e29577f4e487b7100000000000000000000000000000000000000000000000000000000600052603260045260246000fd5b906000526020600020018190555081600960008381526020019081526020016000208190555060096000858152602001908152602001600020600090556008805480612e9e577f4e487b7100000000000000000000000000000000000000000000000000000000600052603160045260246000fd5b6001900381819060005260206000200160009055905550505050565b6000612ec583610b80565b905081600660008573ffffffffffffffffffffffffffffffffffffffff1673ffffffffffffffffffffffffffffffffffffffff168152602001908152602001600020600083815260200190815260200160002081905550806007600084815260200190815260200160002081905550505050565b60007f01ffc9a7000000000000000000000000000000000000000000000000000000007bffffffffffffffffffffffffffffffffffffffffffffffffffffffff1916827bffffffffffffffffffffffffffffffffffffffffffffffffffffffff1916149050919050565b828054612faf90613f90565b90600052602060002090601f016020900481019282612fd15760008555613018565b82601f10612fea57805160ff1916838001178555613018565b82800160010185558215613018579182015b82811115613017578251825591602001919060010190612ffc565b5b5090506130259190613069565b5090565b50805461303590613f90565b6000825580601f106130475750613066565b601f0160209004906000526020600020908101906130659190613069565b5b50565b5b8082111561308257600081600090555060010161306a565b5090565b600061309961309484613cec565b613cc7565b9050828152602081018484840111156130b157600080fd5b6130bc848285613f24565b509392505050565b60006130d76130d284613d1d565b613cc7565b9050828152602081018484840111156130ef57600080fd5b6130fa848285613f24565b509392505050565b6000813590506131118161476f565b92915050565b60008135905061312681614786565b92915050565b60008135905061313b8161479d565b92915050565b600081359050613150816147b4565b92915050565b600081519050613165816147b4565b92915050565b600082601f83011261317c57600080fd5b813561318c848260208601613086565b91505092915050565b600082601f8301126131a657600080fd5b81356131b68482602086016130c4565b91505092915050565b6000813590506131ce816147cb565b92915050565b6000602082840312156131e657600080fd5b60006131f484828501613102565b91505092915050565b6000806040838503121561321057600080fd5b600061321e85828601613102565b925050602061322f85828601613102565b9150509250929050565b60008060006060848603121561324e57600080fd5b600061325c86828701613102565b935050602061326d86828701613102565b925050604061327e868287016131bf565b9150509250925092565b6000806000806080858703121561329e57600080fd5b60006132ac87828801613102565b94505060206132bd87828801613102565b93505060406132ce878288016131bf565b925050606085013567ffffffffffffffff8111156132eb57600080fd5b6132f78782880161316b565b91505092959194509250565b6000806040838503121561331657600080fd5b600061332485828601613102565b925050602061333585828601613117565b9150509250929050565b6000806040838503121561335257600080fd5b600061336085828601613102565b925050602083013567ffffffffffffffff81111561337d57600080fd5b61338985828601613195565b9150509250929050565b600080604083850312156133a657600080fd5b60006133b485828601613102565b92505060206133c5858286016131bf565b9150509250929050565b6000602082840312156133e157600080fd5b60006133ef8482850161312c565b91505092915050565b6000806040838503121561340b57600080fd5b60006134198582860161312c565b925050602061342a85828601613102565b9150509250929050565b6000806040838503121561344757600080fd5b60006134558582860161312c565b9250506020613466858286016131bf565b9150509250929050565b60006020828403121561348257600080fd5b600061349084828501613141565b91505092915050565b6000602082840312156134ab57600080fd5b60006134b984828501613156565b91505092915050565b6000602082840312156134d457600080fd5b60006134e2848285016131bf565b91505092915050565b6134f481613ea6565b82525050565b61350381613eb8565b82525050565b61351281613ec4565b82525050565b600061352382613d4e565b61352d8185613d64565b935061353d818560208601613f33565b61354681614129565b840191505092915050565b600061355c82613d59565b6135668185613d75565b9350613576818560208601613f33565b61357f81614129565b840191505092915050565b600061359582613d59565b61359f8185613d86565b93506135af818560208601613f33565b80840191505092915050565b60006135c8602083613d75565b91506135d38261413a565b602082019050919050565b60006135eb602b83613d75565b91506135f682614163565b604082019050919050565b600061360e603283613d75565b9150613619826141b2565b604082019050919050565b6000613631602583613d75565b915061363c82614201565b604082019050919050565b6000613654601c83613d75565b915061365f82614250565b602082019050919050565b6000613677602483613d75565b915061368282614279565b604082019050919050565b600061369a601983613d75565b91506136a5826142c8565b602082019050919050565b60006136bd602c83613d75565b91506136c8826142f1565b604082019050919050565b60006136e0603883613d75565b91506136eb82614340565b604082019050919050565b6000613703602a83613d75565b915061370e8261438f565b604082019050919050565b6000613726602983613d75565b9150613731826143de565b604082019050919050565b6000613749602e83613d75565b91506137548261442d565b604082019050919050565b600061376c602083613d75565b91506137778261447c565b602082019050919050565b600061378f603183613d75565b915061379a826144a5565b604082019050919050565b60006137b2602c83613d75565b91506137bd826144f4565b604082019050919050565b60006137d5602f83613d75565b91506137e082614543565b604082019050919050565b60006137f8602183613d75565b915061380382614592565b604082019050919050565b600061381b603183613d75565b9150613826826145e1565b604082019050919050565b600061383e602c83613d75565b915061384982614630565b604082019050919050565b6000613861601783613d86565b915061386c8261467f565b601782019050919050565b6000613884603083613d75565b915061388f826146a8565b604082019050919050565b60006138a7601183613d86565b91506138b2826146f7565b601182019050919050565b60006138ca602f83613d75565b91506138d582614720565b604082019050919050565b6138e981613f1a565b82525050565b60006138fb828561358a565b9150613907828461358a565b91508190509392505050565b600061391e82613854565b915061392a828561358a565b91506139358261389a565b9150613941828461358a565b91508190509392505050565b600060208201905061396260008301846134eb565b92915050565b600060808201905061397d60008301876134eb565b61398a60208301866134eb565b61399760408301856138e0565b81810360608301526139a98184613518565b905095945050505050565b60006020820190506139c960008301846134fa565b92915050565b60006020820190506139e46000830184613509565b92915050565b60006020820190508181036000830152613a048184613551565b905092915050565b60006020820190508181036000830152613a25816135bb565b9050919050565b60006020820190508181036000830152613a45816135de565b9050919050565b60006020820190508181036000830152613a6581613601565b9050919050565b60006020820190508181036000830152613a8581613624565b9050919050565b60006020820190508181036000830152613aa581613647565b9050919050565b60006020820190508181036000830152613ac58161366a565b9050919050565b60006020820190508181036000830152613ae58161368d565b9050919050565b60006020820190508181036000830152613b05816136b0565b9050919050565b60006020820190508181036000830152613b25816136d3565b9050919050565b60006020820190508181036000830152613b45816136f6565b9050919050565b60006020820190508181036000830152613b6581613719565b9050919050565b60006020820190508181036000830152613b858161373c565b9050919050565b60006020820190508181036000830152613ba58161375f565b9050919050565b60006020820190508181036000830152613bc581613782565b9050919050565b60006020820190508181036000830152613be5816137a5565b9050919050565b60006020820190508181036000830152613c05816137c8565b9050919050565b60006020820190508181036000830152613c25816137eb565b9050919050565b60006020820190508181036000830152613c458161380e565b9050919050565b60006020820190508181036000830152613c6581613831565b9050919050565b60006020820190508181036000830152613c8581613877565b9050919050565b60006020820190508181036000830152613ca5816138bd565b9050919050565b6000602082019050613cc160008301846138e0565b92915050565b6000613cd1613ce2565b9050613cdd8282613fc2565b919050565b6000604051905090565b600067ffffffffffffffff821115613d0757613d066140fa565b5b613d1082614129565b9050602081019050919050565b600067ffffffffffffffff821115613d3857613d376140fa565b5b613d4182614129565b9050602081019050919050565b600081519050919050565b600081519050919050565b600082825260208201905092915050565b600082825260208201905092915050565b600081905092915050565b6000613d9c82613f1a565b9150613da783613f1a565b9250827fffffffffffffffffffffffffffffffffffffffffffffffffffffffffffffffff03821115613ddc57613ddb61406d565b5b828201905092915050565b6000613df282613f1a565b9150613dfd83613f1a565b925082613e0d57613e0c61409c565b5b828204905092915050565b6000613e2382613f1a565b9150613e2e83613f1a565b9250817fffffffffffffffffffffffffffffffffffffffffffffffffffffffffffffffff0483118215151615613e6757613e6661406d565b5b828202905092915050565b6000613e7d82613f1a565b9150613e8883613f1a565b925082821015613e9b57613e9a61406d565b5b828203905092915050565b6000613eb182613efa565b9050919050565b60008115159050919050565b6000819050919050565b60007fffffffff0000000000000000000000000000000000000000000000000000000082169050919050565b600073ffffffffffffffffffffffffffffffffffffffff82169050919050565b6000819050919050565b82818337600083830152505050565b60005b83811015613f51578082015181840152602081019050613f36565b83811115613f60576000848401525b50505050565b6000613f7182613f1a565b91506000821415613f8557613f8461406d565b5b600182039050919050565b60006002820490506001821680613fa857607f821691505b60208210811415613fbc57613fbb6140cb565b5b50919050565b613fcb82614129565b810181811067ffffffffffffffff82111715613fea57613fe96140fa565b5b80604052505050565b6000613ffe82613f1a565b91507fffffffffffffffffffffffffffffffffffffffffffffffffffffffffffffffff8214156140315761403061406d565b5b600182019050919050565b600061404782613f1a565b915061405283613f1a565b9250826140625761406161409c565b5b828206905092915050565b7f4e487b7100000000000000000000000000000000000000000000000000000000600052601160045260246000fd5b7f4e487b7100000000000000000000000000000000000000000000000000000000600052601260045260246000fd5b7f4e487b7100000000000000000000000000000000000000000000000000000000600052602260045260246000fd5b7f4e487b7100000000000000000000000000000000000000000000000000000000600052604160045260246000fd5b6000601f19601f8301169050919050565b7f537472696e67733a20686578206c656e67746820696e73756666696369656e74600082015250565b7f455243373231456e756d657261626c653a206f776e657220696e646578206f7560008201527f74206f6620626f756e6473000000000000000000000000000000000000000000602082015250565b7f4552433732313a207472616e7366657220746f206e6f6e20455243373231526560008201527f63656976657220696d706c656d656e7465720000000000000000000000000000602082015250565b7f4552433732313a207472616e736665722066726f6d20696e636f72726563742060008201527f6f776e6572000000000000000000000000000000000000000000000000000000602082015250565b7f4552433732313a20746f6b656e20616c7265616479206d696e74656400000000600082015250565b7f4552433732313a207472616e7366657220746f20746865207a65726f2061646460008201527f7265737300000000000000000000000000000000000000000000000000000000602082015250565b7f4552433732313a20617070726f766520746f2063616c6c657200000000000000600082015250565b7f4552433732313a206f70657261746f7220717565727920666f72206e6f6e657860008201527f697374656e7420746f6b656e0000000000000000000000000000000000000000602082015250565b7f4552433732313a20617070726f76652063616c6c6572206973206e6f74206f7760008201527f6e6572206e6f7220617070726f76656420666f7220616c6c0000000000000000602082015250565b7f4552433732313a2062616c616e636520717565727920666f7220746865207a6560008201527f726f206164647265737300000000000000000000000000000000000000000000602082015250565b7f4552433732313a206f776e657220717565727920666f72206e6f6e657869737460008201527f656e7420746f6b656e0000000000000000000000000000000000000000000000602082015250565b7f45524337323155524953746f726167653a2055524920736574206f66206e6f6e60008201527f6578697374656e7420746f6b656e000000000000000000000000000000000000602082015250565b7f4552433732313a206d696e7420746f20746865207a65726f2061646472657373600082015250565b7f45524337323155524953746f726167653a2055524920717565727920666f722060008201527f6e6f6e6578697374656e7420746f6b656e000000000000000000000000000000602082015250565b7f4552433732313a20617070726f76656420717565727920666f72206e6f6e657860008201527f697374656e7420746f6b656e0000000000000000000000000000000000000000602082015250565b7f4552433732314d657461646174613a2055524920717565727920666f72206e6f60008201527f6e6578697374656e7420746f6b656e0000000000000000000000000000000000602082015250565b7f4552433732313a20617070726f76616c20746f2063757272656e74206f776e6560008201527f7200000000000000000000000000000000000000000000000000000000000000602082015250565b7f4552433732313a207472616e736665722063616c6c6572206973206e6f74206f60008201527f776e6572206e6f7220617070726f766564000000000000000000000000000000602082015250565b7f455243373231456e756d657261626c653a20676c6f62616c20696e646578206f60008201527f7574206f6620626f756e64730000000000000000000000000000000000000000602082015250565b7f416363657373436f6e74726f6c3a206163636f756e7420000000000000000000600082015250565b7f4552433732314275726e61626c653a2063616c6c6572206973206e6f74206f7760008201527f6e6572206e6f7220617070726f76656400000000000000000000000000000000602082015250565b7f206973206d697373696e6720726f6c6520000000000000000000000000000000600082015250565b7f416363657373436f6e74726f6c3a2063616e206f6e6c792072656e6f756e636560008201527f20726f6c657320666f722073656c660000000000000000000000000000000000602082015250565b61477881613ea6565b811461478357600080fd5b50565b61478f81613eb8565b811461479a57600080fd5b50565b6147a681613ec4565b81146147b157600080fd5b50565b6147bd81613ece565b81146147c857600080fd5b50565b6147d481613f1a565b81146147df57600080fd5b5056fea2646970667358221220eed663d2b1c74a46faaa6511f9e52f6193b7940e126d41f54e54a41e04ab6ae364736f6c63430008040033",
  "linkReferences": {},
  "deployedLinkReferences": {}
}